{
  "_format": "hh3-artifact-1",
  "contractName": "EnergyRegistry",
  "sourceName": "contracts/EnergyRegistry.sol",
  "abi": [
    {
      "inputs": [],
      "stateMutability": "nonpayable",
      "type": "constructor"
    },
    {
      "inputs": [
        {
          "internalType": "address",
          "name": "target",
          "type": "address"
        }
      ],
      "name": "AddressEmptyCode",
      "type": "error"
    },
    {
      "inputs": [
        {
          "internalType": "bytes32",
          "name": "uid",
          "type": "bytes32"
        }
      ],
      "name": "AttestationAlreadyReplaced",
      "type": "error"
    },
    {
      "inputs": [
        {
          "internalType": "bytes32",
          "name": "uid",
          "type": "bytes32"
        }
      ],
      "name": "AttestationNotFound",
      "type": "error"
    },
    {
      "inputs": [
        {
          "internalType": "address",
          "name": "attester",
          "type": "address"
        },
        {
          "internalType": "uint64",
          "name": "projectId",
          "type": "uint64"
        }
      ],
      "name": "AttesterAlreadyAuthorized",
      "type": "error"
    },
    {
      "inputs": [
        {
          "internalType": "address",
          "name": "attester",
          "type": "address"
        },
        {
          "internalType": "uint64",
          "name": "projectId",
          "type": "uint64"
        }
      ],
      "name": "AttesterNotAuthorized",
      "type": "error"
    },
    {
      "inputs": [
        {
          "internalType": "uint64",
          "name": "projectId",
          "type": "uint64"
        }
      ],
      "name": "DirectRevocationBlocked",
      "type": "error"
    },
    {
      "inputs": [
        {
          "internalType": "address",
          "name": "implementation",
          "type": "address"
        }
      ],
      "name": "ERC1967InvalidImplementation",
      "type": "error"
    },
    {
      "inputs": [],
      "name": "ERC1967NonPayable",
      "type": "error"
    },
    {
      "inputs": [],
      "name": "EmptyAttesterArray",
      "type": "error"
    },
    {
      "inputs": [
        {
          "internalType": "uint8",
          "name": "id",
          "type": "uint8"
        }
      ],
      "name": "EnergyTypeNotRegistered",
      "type": "error"
    },
    {
      "inputs": [],
      "name": "FailedCall",
      "type": "error"
    },
    {
      "inputs": [
        {
          "internalType": "uint8",
          "name": "energyType",
          "type": "uint8"
        }
      ],
      "name": "InvalidEnergyType",
      "type": "error"
    },
    {
      "inputs": [],
      "name": "InvalidInitialization",
      "type": "error"
    },
    {
      "inputs": [
        {
          "internalType": "uint64",
          "name": "projectId",
          "type": "uint64"
        },
        {
          "internalType": "uint64",
          "name": "expectedFrom",
          "type": "uint64"
        },
        {
          "internalType": "uint64",
          "name": "actualFrom",
          "type": "uint64"
        }
      ],
      "name": "NonSequentialAttestation",
      "type": "error"
    },
    {
      "inputs": [],
      "name": "NotInitializing",
      "type": "error"
    },
    {
      "inputs": [
        {
          "internalType": "address",
          "name": "owner",
          "type": "address"
        }
      ],
      "name": "OwnableInvalidOwner",
      "type": "error"
    },
    {
      "inputs": [
        {
          "internalType": "address",
          "name": "account",
          "type": "address"
        }
      ],
      "name": "OwnableUnauthorizedAccount",
      "type": "error"
    },
    {
      "inputs": [
        {
          "internalType": "uint64",
          "name": "projectId",
          "type": "uint64"
        },
        {
          "internalType": "uint64",
          "name": "fromTimestamp",
          "type": "uint64"
        },
        {
          "internalType": "uint64",
          "name": "toTimestamp",
          "type": "uint64"
        }
      ],
      "name": "PeriodAlreadyAttested",
      "type": "error"
    },
    {
      "inputs": [
        {
          "internalType": "uint64",
          "name": "projectId",
          "type": "uint64"
        },
        {
          "internalType": "uint64",
          "name": "fromTimestamp",
          "type": "uint64"
        }
      ],
      "name": "PeriodStartAlreadyAttested",
      "type": "error"
    },
    {
      "inputs": [
        {
          "internalType": "uint64",
          "name": "projectId",
          "type": "uint64"
        }
      ],
      "name": "ProjectNotRegistered",
      "type": "error"
    },
    {
      "inputs": [
        {
          "internalType": "uint64",
          "name": "projectId",
          "type": "uint64"
        },
        {
          "internalType": "uint64",
          "name": "expectedFrom",
          "type": "uint64"
        },
        {
          "internalType": "uint64",
          "name": "actualFrom",
          "type": "uint64"
        },
        {
          "internalType": "uint64",
          "name": "expectedTo",
          "type": "uint64"
        },
        {
          "internalType": "uint64",
          "name": "actualTo",
          "type": "uint64"
        }
      ],
      "name": "ReplacementPeriodMismatch",
      "type": "error"
    },
    {
      "inputs": [],
      "name": "UUPSUnauthorizedCallContext",
      "type": "error"
    },
    {
      "inputs": [
        {
          "internalType": "bytes32",
          "name": "slot",
          "type": "bytes32"
        }
      ],
      "name": "UUPSUnsupportedProxiableUUID",
      "type": "error"
    },
    {
      "inputs": [
        {
          "internalType": "address",
          "name": "caller",
          "type": "address"
        }
      ],
      "name": "UnauthorizedEnergyTypeAdmin",
      "type": "error"
    },
    {
      "inputs": [
        {
          "internalType": "address",
          "name": "caller",
          "type": "address"
        }
      ],
      "name": "UnauthorizedResolver",
      "type": "error"
    },
    {
      "inputs": [
        {
          "internalType": "address",
          "name": "caller",
          "type": "address"
        },
        {
          "internalType": "uint64",
          "name": "watcherId",
          "type": "uint64"
        }
      ],
      "name": "UnauthorizedWatcherOwner",
      "type": "error"
    },
    {
      "inputs": [
        {
          "internalType": "uint64",
          "name": "watcherId",
          "type": "uint64"
        }
      ],
      "name": "WatcherNotRegistered",
      "type": "error"
    },
    {
      "anonymous": false,
      "inputs": [
        {
          "indexed": true,
          "internalType": "uint64",
          "name": "projectId",
          "type": "uint64"
        },
        {
          "indexed": true,
          "internalType": "address",
          "name": "attester",
          "type": "address"
        }
      ],
      "name": "AttesterAdded",
      "type": "event"
    },
    {
      "anonymous": false,
      "inputs": [
        {
          "indexed": true,
          "internalType": "uint64",
          "name": "projectId",
          "type": "uint64"
        },
        {
          "indexed": true,
          "internalType": "address",
          "name": "attester",
          "type": "address"
        }
      ],
      "name": "AttesterRemoved",
      "type": "event"
    },
    {
      "anonymous": false,
      "inputs": [
        {
          "indexed": true,
          "internalType": "uint64",
          "name": "projectId",
          "type": "uint64"
        },
        {
          "indexed": true,
          "internalType": "bytes32",
          "name": "uid",
          "type": "bytes32"
        },
        {
          "indexed": false,
          "internalType": "uint64",
          "name": "fromTimestamp",
          "type": "uint64"
        },
        {
          "indexed": false,
          "internalType": "uint64",
          "name": "toTimestamp",
          "type": "uint64"
        },
        {
          "indexed": false,
          "internalType": "uint256",
          "name": "energyWh",
          "type": "uint256"
        },
        {
          "indexed": true,
          "internalType": "address",
          "name": "attester",
          "type": "address"
        },
        {
          "indexed": false,
          "internalType": "uint8",
          "name": "energyType",
          "type": "uint8"
        },
        {
          "indexed": false,
          "internalType": "string",
          "name": "metadataURI",
          "type": "string"
        },
        {
          "indexed": false,
          "internalType": "uint256[]",
          "name": "readings",
          "type": "uint256[]"
        }
      ],
      "name": "EnergyAttested",
      "type": "event"
    },
    {
      "anonymous": false,
      "inputs": [
        {
          "indexed": true,
          "internalType": "uint64",
          "name": "projectId",
          "type": "uint64"
        },
        {
          "indexed": true,
          "internalType": "bytes32",
          "name": "oldUid",
          "type": "bytes32"
        },
        {
          "indexed": false,
          "internalType": "bytes32",
          "name": "newUid",
          "type": "bytes32"
        },
        {
          "indexed": false,
          "internalType": "uint64",
          "name": "fromTimestamp",
          "type": "uint64"
        },
        {
          "indexed": false,
          "internalType": "uint64",
          "name": "toTimestamp",
          "type": "uint64"
        },
        {
          "indexed": false,
          "internalType": "uint256",
          "name": "oldEnergyWh",
          "type": "uint256"
        },
        {
          "indexed": false,
          "internalType": "uint256",
          "name": "newEnergyWh",
          "type": "uint256"
        },
        {
          "indexed": true,
          "internalType": "address",
          "name": "attester",
          "type": "address"
        },
        {
          "indexed": false,
          "internalType": "string",
          "name": "metadataURI",
          "type": "string"
        },
        {
          "indexed": false,
          "internalType": "uint256[]",
          "name": "newReadings",
          "type": "uint256[]"
        }
      ],
      "name": "EnergyReplaced",
      "type": "event"
    },
    {
      "anonymous": false,
      "inputs": [
        {
          "indexed": true,
          "internalType": "uint64",
          "name": "projectId",
          "type": "uint64"
        },
        {
          "indexed": false,
          "internalType": "uint256",
          "name": "energyWh",
          "type": "uint256"
        },
        {
          "indexed": true,
          "internalType": "address",
          "name": "attester",
          "type": "address"
        },
        {
          "indexed": false,
          "internalType": "uint8",
          "name": "energyType",
          "type": "uint8"
        }
      ],
      "name": "EnergyRevoked",
      "type": "event"
    },
    {
      "anonymous": false,
      "inputs": [
        {
          "indexed": true,
          "internalType": "address",
          "name": "previousAdmin",
          "type": "address"
        },
        {
          "indexed": true,
          "internalType": "address",
          "name": "newAdmin",
          "type": "address"
        }
      ],
      "name": "EnergyTypeAdminTransferred",
      "type": "event"
    },
    {
      "anonymous": false,
      "inputs": [
        {
          "indexed": true,
          "internalType": "uint8",
          "name": "id",
          "type": "uint8"
        },
        {
          "indexed": false,
          "internalType": "string",
          "name": "name",
          "type": "string"
        }
      ],
      "name": "EnergyTypeRegistered",
      "type": "event"
    },
    {
      "anonymous": false,
      "inputs": [
        {
          "indexed": true,
          "internalType": "uint8",
          "name": "id",
          "type": "uint8"
        },
        {
          "indexed": false,
          "internalType": "string",
          "name": "name",
          "type": "string"
        }
      ],
      "name": "EnergyTypeRemoved",
      "type": "event"
    },
    {
      "anonymous": false,
      "inputs": [
        {
          "indexed": false,
          "internalType": "uint64",
          "name": "version",
          "type": "uint64"
        }
      ],
      "name": "Initialized",
      "type": "event"
    },
    {
      "anonymous": false,
      "inputs": [
        {
          "indexed": true,
          "internalType": "address",
          "name": "previousOwner",
          "type": "address"
        },
        {
          "indexed": true,
          "internalType": "address",
          "name": "newOwner",
          "type": "address"
        }
      ],
      "name": "OwnershipTransferStarted",
      "type": "event"
    },
    {
      "anonymous": false,
      "inputs": [
        {
          "indexed": true,
          "internalType": "address",
          "name": "previousOwner",
          "type": "address"
        },
        {
          "indexed": true,
          "internalType": "address",
          "name": "newOwner",
          "type": "address"
        }
      ],
      "name": "OwnershipTransferred",
      "type": "event"
    },
    {
      "anonymous": false,
      "inputs": [
        {
          "indexed": true,
          "internalType": "uint64",
          "name": "projectId",
          "type": "uint64"
        }
      ],
      "name": "ProjectDeregistered",
      "type": "event"
    },
    {
      "anonymous": false,
      "inputs": [
        {
          "indexed": true,
          "internalType": "uint64",
          "name": "projectId",
          "type": "uint64"
        },
        {
          "indexed": false,
          "internalType": "string",
          "name": "uri",
          "type": "string"
        }
      ],
      "name": "ProjectMetadataURISet",
      "type": "event"
    },
    {
      "anonymous": false,
      "inputs": [
        {
          "indexed": true,
          "internalType": "uint64",
          "name": "projectId",
          "type": "uint64"
        },
        {
          "indexed": true,
          "internalType": "uint64",
          "name": "watcherId",
          "type": "uint64"
        },
        {
          "indexed": false,
          "internalType": "string",
          "name": "name",
          "type": "string"
        },
        {
          "indexed": false,
          "internalType": "uint8",
          "name": "energyType",
          "type": "uint8"
        }
      ],
      "name": "ProjectRegistered",
      "type": "event"
    },
    {
      "anonymous": false,
      "inputs": [
        {
          "indexed": true,
          "internalType": "uint64",
          "name": "projectId",
          "type": "uint64"
        },
        {
          "indexed": true,
          "internalType": "uint64",
          "name": "fromWatcherId",
          "type": "uint64"
        },
        {
          "indexed": true,
          "internalType": "uint64",
          "name": "toWatcherId",
          "type": "uint64"
        }
      ],
      "name": "ProjectTransferred",
      "type": "event"
    },
    {
      "anonymous": false,
      "inputs": [
        {
          "indexed": true,
          "internalType": "address",
          "name": "resolver",
          "type": "address"
        }
      ],
      "name": "ResolverAuthorized",
      "type": "event"
    },
    {
      "anonymous": false,
      "inputs": [
        {
          "indexed": true,
          "internalType": "address",
          "name": "resolver",
          "type": "address"
        }
      ],
      "name": "ResolverDeauthorized",
      "type": "event"
    },
    {
      "anonymous": false,
      "inputs": [
        {
          "indexed": true,
          "internalType": "address",
          "name": "implementation",
          "type": "address"
        }
      ],
      "name": "Upgraded",
      "type": "event"
    },
    {
      "anonymous": false,
      "inputs": [
        {
          "indexed": true,
          "internalType": "uint64",
          "name": "watcherId",
          "type": "uint64"
        },
        {
          "indexed": true,
          "internalType": "address",
          "name": "attester",
          "type": "address"
        }
      ],
      "name": "WatcherAttesterAdded",
      "type": "event"
    },
    {
      "anonymous": false,
      "inputs": [
        {
          "indexed": true,
          "internalType": "uint64",
          "name": "watcherId",
          "type": "uint64"
        },
        {
          "indexed": true,
          "internalType": "address",
          "name": "attester",
          "type": "address"
        }
      ],
      "name": "WatcherAttesterRemoved",
      "type": "event"
    },
    {
      "anonymous": false,
      "inputs": [
        {
          "indexed": true,
          "internalType": "uint64",
          "name": "watcherId",
          "type": "uint64"
        },
        {
          "indexed": true,
          "internalType": "address",
          "name": "previousOwner",
          "type": "address"
        },
        {
          "indexed": true,
          "internalType": "address",
          "name": "newOwner",
          "type": "address"
        }
      ],
      "name": "WatcherOwnershipTransferred",
      "type": "event"
    },
    {
      "anonymous": false,
      "inputs": [
        {
          "indexed": true,
          "internalType": "uint64",
          "name": "watcherId",
          "type": "uint64"
        },
        {
          "indexed": false,
          "internalType": "string",
          "name": "name",
          "type": "string"
        },
        {
          "indexed": true,
          "internalType": "address",
          "name": "owner",
          "type": "address"
        }
      ],
      "name": "WatcherRegistered",
      "type": "event"
    },
    {
      "inputs": [],
      "name": "UPGRADE_INTERFACE_VERSION",
      "outputs": [
        {
          "internalType": "string",
          "name": "",
          "type": "string"
        }
      ],
      "stateMutability": "view",
      "type": "function"
    },
    {
      "inputs": [],
      "name": "acceptOwnership",
      "outputs": [],
      "stateMutability": "nonpayable",
      "type": "function"
    },
    {
      "inputs": [
        {
          "internalType": "uint64",
          "name": "projectId",
          "type": "uint64"
        },
        {
          "internalType": "address",
          "name": "attester",
          "type": "address"
        }
      ],
      "name": "addAttester",
      "outputs": [],
      "stateMutability": "nonpayable",
      "type": "function"
    },
    {
      "inputs": [
        {
          "internalType": "uint64",
          "name": "projectId",
          "type": "uint64"
        },
        {
          "internalType": "address[]",
          "name": "attesters",
          "type": "address[]"
        }
      ],
      "name": "addAttesters",
      "outputs": [],
      "stateMutability": "nonpayable",
      "type": "function"
    },
    {
      "inputs": [
        {
          "internalType": "uint64",
          "name": "watcherId",
          "type": "uint64"
        },
        {
          "internalType": "address",
          "name": "attester",
          "type": "address"
        }
      ],
      "name": "addWatcherAttester",
      "outputs": [],
      "stateMutability": "nonpayable",
      "type": "function"
    },
    {
      "inputs": [
        {
          "internalType": "address",
          "name": "resolver",
          "type": "address"
        }
      ],
      "name": "authorizeResolver",
      "outputs": [],
      "stateMutability": "nonpayable",
      "type": "function"
    },
    {
      "inputs": [
        {
          "internalType": "address",
          "name": "resolver",
          "type": "address"
        }
      ],
      "name": "deauthorizeResolver",
      "outputs": [],
      "stateMutability": "nonpayable",
      "type": "function"
    },
    {
      "inputs": [
        {
          "internalType": "uint64",
          "name": "projectId",
          "type": "uint64"
        }
      ],
      "name": "deregisterProject",
      "outputs": [],
      "stateMutability": "nonpayable",
      "type": "function"
    },
    {
      "inputs": [
        {
          "internalType": "uint64",
          "name": "projectId",
          "type": "uint64"
        },
        {
          "internalType": "uint64",
          "name": "fromTimestamp",
          "type": "uint64"
        }
      ],
      "name": "getAttestedPeriodStartUID",
      "outputs": [
        {
          "internalType": "bytes32",
          "name": "",
          "type": "bytes32"
        }
      ],
      "stateMutability": "view",
      "type": "function"
    },
    {
      "inputs": [
        {
          "internalType": "uint64",
          "name": "projectId",
          "type": "uint64"
        },
        {
          "internalType": "uint64",
          "name": "fromTimestamp",
          "type": "uint64"
        },
        {
          "internalType": "uint64",
          "name": "toTimestamp",
          "type": "uint64"
        }
      ],
      "name": "getAttestedPeriodUID",
      "outputs": [
        {
          "internalType": "bytes32",
          "name": "",
          "type": "bytes32"
        }
      ],
      "stateMutability": "view",
      "type": "function"
    },
    {
      "inputs": [],
      "name": "getEnergyTypeAdmin",
      "outputs": [
        {
          "internalType": "address",
          "name": "",
          "type": "address"
        }
      ],
      "stateMutability": "view",
      "type": "function"
    },
    {
      "inputs": [
        {
          "internalType": "uint8",
          "name": "id",
          "type": "uint8"
        }
      ],
      "name": "getEnergyTypeName",
      "outputs": [
        {
          "internalType": "string",
          "name": "",
          "type": "string"
        }
      ],
      "stateMutability": "view",
      "type": "function"
    },
    {
      "inputs": [],
      "name": "getNextProjectId",
      "outputs": [
        {
          "internalType": "uint64",
          "name": "",
          "type": "uint64"
        }
      ],
      "stateMutability": "view",
      "type": "function"
    },
    {
      "inputs": [],
      "name": "getNextWatcherId",
      "outputs": [
        {
          "internalType": "uint64",
          "name": "",
          "type": "uint64"
        }
      ],
      "stateMutability": "view",
      "type": "function"
    },
    {
      "inputs": [
        {
          "internalType": "uint64",
          "name": "projectId",
          "type": "uint64"
        }
      ],
      "name": "getProject",
      "outputs": [
        {
          "components": [
            {
              "internalType": "uint64",
              "name": "watcherId",
              "type": "uint64"
            },
            {
              "internalType": "bool",
              "name": "registered",
              "type": "bool"
            },
            {
              "internalType": "uint8",
              "name": "energyType",
              "type": "uint8"
            },
            {
              "internalType": "string",
              "name": "name",
              "type": "string"
            }
          ],
          "internalType": "struct EnergyRegistry.Project",
          "name": "",
          "type": "tuple"
        }
      ],
      "stateMutability": "view",
      "type": "function"
    },
    {
      "inputs": [
        {
          "internalType": "uint64",
          "name": "projectId",
          "type": "uint64"
        }
      ],
      "name": "getProjectEnergyType",
      "outputs": [
        {
          "internalType": "uint8",
          "name": "",
          "type": "uint8"
        }
      ],
      "stateMutability": "view",
      "type": "function"
    },
    {
      "inputs": [
        {
          "internalType": "uint64",
          "name": "projectId",
          "type": "uint64"
        }
      ],
      "name": "getProjectLastTimestamp",
      "outputs": [
        {
          "internalType": "uint64",
          "name": "",
          "type": "uint64"
        }
      ],
      "stateMutability": "view",
      "type": "function"
    },
    {
      "inputs": [
        {
          "internalType": "uint64",
          "name": "projectId",
          "type": "uint64"
        }
      ],
      "name": "getProjectMetadataURI",
      "outputs": [
        {
          "internalType": "string",
          "name": "",
          "type": "string"
        }
      ],
      "stateMutability": "view",
      "type": "function"
    },
    {
      "inputs": [
        {
          "internalType": "uint64",
          "name": "projectId",
          "type": "uint64"
        }
      ],
      "name": "getProjectType",
      "outputs": [
        {
          "internalType": "uint8",
          "name": "",
          "type": "uint8"
        }
      ],
      "stateMutability": "view",
      "type": "function"
    },
    {
      "inputs": [
        {
          "internalType": "uint64",
          "name": "projectId",
          "type": "uint64"
        }
      ],
      "name": "getProjectWatcherId",
      "outputs": [
        {
          "internalType": "uint64",
          "name": "",
          "type": "uint64"
        }
      ],
      "stateMutability": "view",
      "type": "function"
    },
    {
      "inputs": [
        {
          "internalType": "bytes32",
          "name": "uid",
          "type": "bytes32"
        }
      ],
      "name": "getReplacementUID",
      "outputs": [
        {
          "internalType": "bytes32",
          "name": "",
          "type": "bytes32"
        }
      ],
      "stateMutability": "view",
      "type": "function"
    },
    {
      "inputs": [
        {
          "internalType": "uint64",
          "name": "projectId",
          "type": "uint64"
        }
      ],
      "name": "getTotalConsumedEnergy",
      "outputs": [
        {
          "internalType": "uint256",
          "name": "",
          "type": "uint256"
        }
      ],
      "stateMutability": "view",
      "type": "function"
    },
    {
      "inputs": [
        {
          "internalType": "uint64",
          "name": "watcherId",
          "type": "uint64"
        }
      ],
      "name": "getTotalConsumedEnergyByWatcher",
      "outputs": [
        {
          "internalType": "uint256",
          "name": "",
          "type": "uint256"
        }
      ],
      "stateMutability": "view",
      "type": "function"
    },
    {
      "inputs": [
        {
          "internalType": "uint64",
          "name": "projectId",
          "type": "uint64"
        }
      ],
      "name": "getTotalGeneratedEnergy",
      "outputs": [
        {
          "internalType": "uint256",
          "name": "",
          "type": "uint256"
        }
      ],
      "stateMutability": "view",
      "type": "function"
    },
    {
      "inputs": [
        {
          "internalType": "uint64",
          "name": "watcherId",
          "type": "uint64"
        }
      ],
      "name": "getTotalGeneratedEnergyByWatcher",
      "outputs": [
        {
          "internalType": "uint256",
          "name": "",
          "type": "uint256"
        }
      ],
      "stateMutability": "view",
      "type": "function"
    },
    {
      "inputs": [
        {
          "internalType": "uint64",
          "name": "watcherId",
          "type": "uint64"
        }
      ],
      "name": "getWatcher",
      "outputs": [
        {
          "components": [
            {
              "internalType": "address",
              "name": "owner",
              "type": "address"
            },
            {
              "internalType": "bool",
              "name": "registered",
              "type": "bool"
            },
            {
              "internalType": "string",
              "name": "name",
              "type": "string"
            }
          ],
          "internalType": "struct EnergyRegistry.Watcher",
          "name": "",
          "type": "tuple"
        }
      ],
      "stateMutability": "view",
      "type": "function"
    },
    {
      "inputs": [
        {
          "internalType": "uint64",
          "name": "watcherId",
          "type": "uint64"
        }
      ],
      "name": "getWatcherProjects",
      "outputs": [
        {
          "internalType": "uint64[]",
          "name": "",
          "type": "uint64[]"
        }
      ],
      "stateMutability": "view",
      "type": "function"
    },
    {
      "inputs": [
        {
          "internalType": "address",
          "name": "initialOwner",
          "type": "address"
        }
      ],
      "name": "initialize",
      "outputs": [],
      "stateMutability": "nonpayable",
      "type": "function"
    },
    {
      "inputs": [
        {
          "internalType": "address",
          "name": "resolver",
          "type": "address"
        }
      ],
      "name": "isAuthorizedResolver",
      "outputs": [
        {
          "internalType": "bool",
          "name": "",
          "type": "bool"
        }
      ],
      "stateMutability": "view",
      "type": "function"
    },
    {
      "inputs": [
        {
          "internalType": "uint8",
          "name": "id",
          "type": "uint8"
        }
      ],
      "name": "isEnergyTypeRegistered",
      "outputs": [
        {
          "internalType": "bool",
          "name": "",
          "type": "bool"
        }
      ],
      "stateMutability": "view",
      "type": "function"
    },
    {
      "inputs": [
        {
          "internalType": "uint64",
          "name": "projectId",
          "type": "uint64"
        },
        {
          "internalType": "address",
          "name": "attester",
          "type": "address"
        }
      ],
      "name": "isProjectAttester",
      "outputs": [
        {
          "internalType": "bool",
          "name": "",
          "type": "bool"
        }
      ],
      "stateMutability": "view",
      "type": "function"
    },
    {
      "inputs": [
        {
          "internalType": "uint64",
          "name": "projectId",
          "type": "uint64"
        }
      ],
      "name": "isProjectRegistered",
      "outputs": [
        {
          "internalType": "bool",
          "name": "",
          "type": "bool"
        }
      ],
      "stateMutability": "view",
      "type": "function"
    },
    {
      "inputs": [
        {
          "internalType": "uint64",
          "name": "watcherId",
          "type": "uint64"
        },
        {
          "internalType": "address",
          "name": "attester",
          "type": "address"
        }
      ],
      "name": "isWatcherAttester",
      "outputs": [
        {
          "internalType": "bool",
          "name": "",
          "type": "bool"
        }
      ],
      "stateMutability": "view",
      "type": "function"
    },
    {
      "inputs": [
        {
          "internalType": "uint64",
          "name": "watcherId",
          "type": "uint64"
        }
      ],
      "name": "isWatcherRegistered",
      "outputs": [
        {
          "internalType": "bool",
          "name": "",
          "type": "bool"
        }
      ],
      "stateMutability": "view",
      "type": "function"
    },
    {
      "inputs": [],
      "name": "owner",
      "outputs": [
        {
          "internalType": "address",
          "name": "",
          "type": "address"
        }
      ],
      "stateMutability": "view",
      "type": "function"
    },
    {
      "inputs": [],
      "name": "pendingOwner",
      "outputs": [
        {
          "internalType": "address",
          "name": "",
          "type": "address"
        }
      ],
      "stateMutability": "view",
      "type": "function"
    },
    {
      "inputs": [],
      "name": "proxiableUUID",
      "outputs": [
        {
          "internalType": "bytes32",
          "name": "",
          "type": "bytes32"
        }
      ],
      "stateMutability": "view",
      "type": "function"
    },
    {
      "inputs": [
        {
          "internalType": "bytes32",
          "name": "uid",
          "type": "bytes32"
        },
        {
          "internalType": "uint64",
          "name": "projectId",
          "type": "uint64"
        },
        {
          "internalType": "uint64",
          "name": "fromTimestamp",
          "type": "uint64"
        },
        {
          "internalType": "uint64",
          "name": "toTimestamp",
          "type": "uint64"
        },
        {
          "internalType": "uint256",
          "name": "energyWh",
          "type": "uint256"
        },
        {
          "internalType": "address",
          "name": "attester",
          "type": "address"
        },
        {
          "internalType": "string",
          "name": "metadataURI",
          "type": "string"
        },
        {
          "internalType": "uint256[]",
          "name": "readings",
          "type": "uint256[]"
        }
      ],
      "name": "recordAttestation",
      "outputs": [],
      "stateMutability": "nonpayable",
      "type": "function"
    },
    {
      "inputs": [
        {
          "internalType": "bytes32",
          "name": "oldUid",
          "type": "bytes32"
        },
        {
          "internalType": "bytes32",
          "name": "newUid",
          "type": "bytes32"
        },
        {
          "internalType": "uint64",
          "name": "projectId",
          "type": "uint64"
        },
        {
          "internalType": "uint64",
          "name": "fromTimestamp",
          "type": "uint64"
        },
        {
          "internalType": "uint64",
          "name": "toTimestamp",
          "type": "uint64"
        },
        {
          "internalType": "uint256",
          "name": "oldEnergyWh",
          "type": "uint256"
        },
        {
          "internalType": "uint256",
          "name": "newEnergyWh",
          "type": "uint256"
        },
        {
          "internalType": "address",
          "name": "attester",
          "type": "address"
        },
        {
          "internalType": "string",
          "name": "metadataURI",
          "type": "string"
        },
        {
          "internalType": "uint256[]",
          "name": "newReadings",
          "type": "uint256[]"
        }
      ],
      "name": "recordReplacement",
      "outputs": [],
      "stateMutability": "nonpayable",
      "type": "function"
    },
    {
      "inputs": [
        {
          "internalType": "bytes32",
          "name": "",
          "type": "bytes32"
        },
        {
          "internalType": "uint64",
          "name": "projectId",
          "type": "uint64"
        },
        {
          "internalType": "uint64",
          "name": "",
          "type": "uint64"
        },
        {
          "internalType": "uint64",
          "name": "",
          "type": "uint64"
        },
        {
          "internalType": "uint256",
          "name": "",
          "type": "uint256"
        },
        {
          "internalType": "address",
          "name": "",
          "type": "address"
        }
      ],
      "name": "recordRevocation",
      "outputs": [],
      "stateMutability": "view",
      "type": "function"
    },
    {
      "inputs": [
        {
          "internalType": "uint8",
          "name": "id",
          "type": "uint8"
        },
        {
          "internalType": "string",
          "name": "name",
          "type": "string"
        }
      ],
      "name": "registerEnergyType",
      "outputs": [],
      "stateMutability": "nonpayable",
      "type": "function"
    },
    {
      "inputs": [
        {
          "internalType": "uint64",
          "name": "watcherId",
          "type": "uint64"
        },
        {
          "internalType": "string",
          "name": "name",
          "type": "string"
        },
        {
          "internalType": "uint8",
          "name": "energyType",
          "type": "uint8"
        }
      ],
      "name": "registerProject",
      "outputs": [
        {
          "internalType": "uint64",
          "name": "projectId",
          "type": "uint64"
        }
      ],
      "stateMutability": "nonpayable",
      "type": "function"
    },
    {
      "inputs": [
        {
          "internalType": "string",
          "name": "name",
          "type": "string"
        }
      ],
      "name": "registerWatcher",
      "outputs": [
        {
          "internalType": "uint64",
          "name": "watcherId",
          "type": "uint64"
        }
      ],
      "stateMutability": "nonpayable",
      "type": "function"
    },
    {
      "inputs": [
        {
          "internalType": "uint64",
          "name": "projectId",
          "type": "uint64"
        },
        {
          "internalType": "address",
          "name": "attester",
          "type": "address"
        }
      ],
      "name": "removeAttester",
      "outputs": [],
      "stateMutability": "nonpayable",
      "type": "function"
    },
    {
      "inputs": [
        {
          "internalType": "uint64",
          "name": "projectId",
          "type": "uint64"
        },
        {
          "internalType": "address[]",
          "name": "attesters",
          "type": "address[]"
        }
      ],
      "name": "removeAttesters",
      "outputs": [],
      "stateMutability": "nonpayable",
      "type": "function"
    },
    {
      "inputs": [
        {
          "internalType": "uint8",
          "name": "id",
          "type": "uint8"
        }
      ],
      "name": "removeEnergyType",
      "outputs": [],
      "stateMutability": "nonpayable",
      "type": "function"
    },
    {
      "inputs": [
        {
          "internalType": "uint64",
          "name": "watcherId",
          "type": "uint64"
        },
        {
          "internalType": "address",
          "name": "attester",
          "type": "address"
        }
      ],
      "name": "removeWatcherAttester",
      "outputs": [],
      "stateMutability": "nonpayable",
      "type": "function"
    },
    {
      "inputs": [],
      "name": "renounceOwnership",
      "outputs": [],
      "stateMutability": "pure",
      "type": "function"
    },
    {
      "inputs": [
        {
          "internalType": "uint64",
          "name": "projectId",
          "type": "uint64"
        },
        {
          "internalType": "string",
          "name": "uri",
          "type": "string"
        }
      ],
      "name": "setProjectMetadataURI",
      "outputs": [],
      "stateMutability": "nonpayable",
      "type": "function"
    },
    {
      "inputs": [
        {
          "internalType": "address",
          "name": "newAdmin",
          "type": "address"
        }
      ],
      "name": "transferEnergyTypeAdmin",
      "outputs": [],
      "stateMutability": "nonpayable",
      "type": "function"
    },
    {
      "inputs": [
        {
          "internalType": "address",
          "name": "newOwner",
          "type": "address"
        }
      ],
      "name": "transferOwnership",
      "outputs": [],
      "stateMutability": "nonpayable",
      "type": "function"
    },
    {
      "inputs": [
        {
          "internalType": "uint64",
          "name": "projectId",
          "type": "uint64"
        },
        {
          "internalType": "uint64",
          "name": "toWatcherId",
          "type": "uint64"
        }
      ],
      "name": "transferProject",
      "outputs": [],
      "stateMutability": "nonpayable",
      "type": "function"
    },
    {
      "inputs": [
        {
          "internalType": "uint64",
          "name": "watcherId",
          "type": "uint64"
        },
        {
          "internalType": "address",
          "name": "newOwner",
          "type": "address"
        }
      ],
      "name": "transferWatcherOwnership",
      "outputs": [],
      "stateMutability": "nonpayable",
      "type": "function"
    },
    {
      "inputs": [
        {
          "internalType": "address",
          "name": "newImplementation",
          "type": "address"
        },
        {
          "internalType": "bytes",
          "name": "data",
          "type": "bytes"
        }
      ],
      "name": "upgradeToAndCall",
      "outputs": [],
      "stateMutability": "payable",
      "type": "function"
    }
  ],
  "bytecode": "0x60a0806040523461010e5730608052600180546001600160a01b031990811682555f8054918216831781556001600160a01b03909116907f8be0079c531659141344cd1fd0a4f28419497f9722a3daafe3b4186f6b6457e09080a35f516020613e3e5f395f51905f525460ff8160401c166100ff576002600160401b03196001600160401b038216016100ac575b604051613d2b90816101138239608051818181612def0152612f030152f35b6001600160401b0319166001600160401b039081175f516020613e3e5f395f51905f525581527fc7f505b2f371ae2175ee4913f4499e1f2633a7b5936321eed1cdaeb6115181d290602090a15f8061008d565b63f92ee8a960e01b5f5260045ffd5b5f80fdfe6080806040526004361015610012575f80fd5b5f3560e01c908163058d6670146137015750806306c88c2b146136db5780630707fefc1461369a5780630795549a1461365a57806317835e481461361a578063186061451461353b5780631d502fbf1461348157806327d605d31461344957806329ba125814613411578063318c9b6e146133da57806335c8a4d91461325a57806338bd79bc1461321c578063393321381461318757806347878438146130b75780634bd8ff071461307f5780634f1ef28614612eb4578063528a66dc14612e4357806352d1902d14612ddd5780635fbdf1b314612d54578063691a7a8014612d2a5780636d871a4514612cc5578063715018a614612c7c578063744c210f14612c2857806377a25eb914612a2057806379ba5097146129de5780637fb2a4bf146129a657806386c28d181461294e57806388a27803146128df5780638da5cb5b146128b857806393de4bab146127e657806399fba125146127ae5780639bb6d8ab146126975780639d699a45146125ca5780639fb522c8146124b3578063a74391e314612222578063ab223af5146121dc578063ad3cb1cc14612191578063af38188e14611e96578063af7b718a14611e2e578063b06a2ca914611dc9578063b6903f5114611d8c578063c4d66de814610f4e578063c65a870914610ef6578063cc16764414610c0f578063cfb8521414610ab6578063d17f8f69146109b8578063d419e6c814610805578063d4f8f568146107b2578063dc1cd92914610620578063e30c3978146105f8578063ebb0001c146105b7578063f2fde38b14610545578063f9d9eaee146102985763fc6213791461026e575f80fd5b34610294575f3660031901126102945760206001600160401b0360045416604051908152f35b5f80fd5b34610294576060366003190112610294576102b1613724565b6024356001600160401b038111610294576102d090369060040161388e565b906044359160ff8316809303610294576102e984613b39565b8215158061052e575b61051b57600654926001600160401b038416936001600160401b036001860116906001600160401b031916176006556001600160401b03604051956103368761380d565b16928386526001602087019681885260408101848152610357368786613849565b9860608301998a52885f5260056020526001600160401b038060405f20945116166001600160401b031984541617835551151560ff60401b83549160401b169060ff60401b19161782555160ff60481b82549160481b169060ff60481b1916178155019551928351926001600160401b0384116105075787846103e789966103e160209c5461392e565b84613a1c565b8996601f82116001146104815790807f26067c060a09434ccfebe6434048637b08a4bc8c48eab0587c0c090116e36cdc9798610438935f92610476575b50508160011b915f199060031b1c19161790565b90555b855f526007885261044f8560405f20613af2565b610466604051938493604085526040850191613a5f565b90888301520390a3604051908152f35b015190508c80610424565b601f19821690835f52885f20915f5b8181106104ed5750988392916001947f26067c060a09434ccfebe6434048637b08a4bc8c48eab0587c0c090116e36cdc9a9b106104d5575b505050811b01905561043b565b01515f1960f88460031b161c191690558b80806104c8565b828b01518455998d01998c99506001909301928d01610490565b634e487b7160e01b5f52604160045260245ffd5b8263a01d4a4360e01b5f5260045260245ffd5b50825f52601460205260ff60405f205416156102f2565b346102945760203660031901126102945761055e613792565b610566613bf6565b60018060a01b0316806bffffffffffffffffffffffff60a01b600154161760015560018060a01b035f54167f38d16b8cac22d99fc7c124b9cd0de2d3fa1faef420bfe791d8c362d765e227005f80a3005b34610294576020366003190112610294576001600160401b036105d8613724565b165f52601060205260206001600160401b0360405f205416604051908152f35b34610294575f366003190112610294576001546040516001600160a01b039091168152602090f35b34610294576040366003190112610294576106396137e2565b6024356001600160401b0381116102945761065890369060040161388e565b6015546001600160a01b0316330361079f5760ff91610678913691613849565b9116805f52601360205260405f20918051926001600160401b038411610507576106ac846106a6835461392e565b83613a1c565b602093601f811160011461072c57906106ee8261071c94935f516020613cb65f395f51905f5296975f91610721575b508160011b915f199060031b1c19161790565b90555b835f52601460205260405f20600160ff198254161790556040519182916020835260208301906137be565b0390a2005b9050840151886106db565b601f198116825f52855f20905f5b8181106107875750916001915f516020613cb65f395f51905f5296978261071c9796951061076f575b5050811b0190556106f1565b8501515f1960f88460031b161c191690558780610763565b8588015183556020978801976001909301920161073a565b6324a3ab2960e21b5f523360045260245ffd5b34610294576020366003190112610294576001600160401b036107d3613724565b165f52600560205260ff60405f205460481c16155f146107fd57602060015b60ff60405191168152f35b60205f6107f2565b346102945760403660031901126102945761081e613724565b602435906001600160401b038211610294576108466001600160401b0392369060040161388e565b9290911690815f52600560205260ff60405f205460401c16156109a557815f5260056020526108816001600160401b0360405f205416613b39565b815f52601260205260405f20926001600160401b038111610507576108b0816108aa865461392e565b86613a1c565b5f93601f8211600114610923576108fe82807f84d6a78d09089a41ce72e8c8659620805699506f94df89e328a546a09b75cf0996975f9161091857508160011b915f199060031b1c19161790565b90555b61071c604051928392602084526020840191613a5f565b9050850135886106db565b601f19821694815f5260205f20905f5b87811061098d5750837f84d6a78d09089a41ce72e8c8659620805699506f94df89e328a546a09b75cf09969710610974575b5050600182811b019055610901565b8401355f19600385901b60f8161c191690558580610965565b90916020600181928589013581550193019101610933565b50630e32d1c960e11b5f5260045260245ffd5b34610294576040366003190112610294576109d1613724565b6001600160401b036109e161377c565b911690815f52600560205260ff60405f205460401c16156109a557815f526005602052610a1a6001600160401b0360405f205416613b39565b815f52600860205260405f2060018060a01b0382165f5260205260ff60405f205416610a99575f8281526008602090815260408083206001600160a01b0394909416808452939091528120805460ff191660011790559091907f4e58dd0c2b41fcffc97dfc67039bd0284456c764b7697bad230deff4354b6bd09080a3005b63f9b7afc560e01b5f5260018060a01b031660045260245260445ffd5b3461029457610ac4366138eb565b918215610c00576001600160401b0316805f52600560205260ff60405f205460401c1615610bee57805f526005602052610b0a6001600160401b0360405f205416613b39565b5f5b838110610b1557005b815f52600860205260405f20610b34610b2f838787613a7f565b613aa3565b60018060a01b03165f5260205260ff60405f20541615610bc357600190825f52600860205260405f20610b6b610b2f838888613a7f565b838060a01b03165f5260205260405f2060ff198154169055818060a01b03610b97610b2f838888613a7f565b16837f4ac18daf67a0b52ad2f8f428c174339e0812f25a43cb0cc96a0b22605c48bb6c5f80a301610b0c565b610b2f9193610bd193613a7f565b63b9812f2560e01b5f5260018060a01b031660045260245260445ffd5b630e32d1c960e11b5f5260045260245ffd5b637faabf5f60e01b5f5260045ffd5b346102945761014036600319011261029457602435600435610c2f613750565b91610c38613766565b608435916001600160401b0383168093036102945760e4356001600160a01b038116959060a4359060c4359088900361029457610104356001600160401b03811161029457610c8b90369060040161388e565b9091610124356001600160401b03811161029457610cad9036906004016138bb565b949095335f52600260205260ff60405f20541615610ee3578a5f52601160205260405f2054610ed0576001600160401b031698895f52600e60205260405f206001600160401b038a165f5260205260405f20815f526020528a60405f205403610ebd5792610e56927fe6316f7d771fe0363dd5028200a507e5f299b2b6ed6d2a0723cedf7faceebc659998979592610e6497958c5f52600e60205260405f206001600160401b038c165f5260205260405f20815f526020528960405f20558c5f52600f60205260405f206001600160401b038c165f526020528960405f20558d5f5260116020528960405f20558c5f5260056020526001600160401b0360405f2054168d5f52600560205260ff60405f205460481c1615155f14610e69578d5f52600a6020528d610deb85610de68660405f2054613ab7565b613ac4565b905f52600a60205260405f2055805f52600c602052610e1284610de68560405f2054613ab7565b905f52600c60205260405f20555b6001600160401b036040519b8c9b8c521660208b015260408a01526060890152608088015260e060a088015260e0870191613a5f565b9184830360c0860152613b15565b0390a4005b8d5f52600b6020528d610e8485610de68660405f2054613ab7565b905f52600b60205260405f2055805f52600d602052610eab84610de68560405f2054613ab7565b905f52600d60205260405f2055610e20565b8a6301fb6dd160e01b5f5260045260245ffd5b8a63b9e0b98760e01b5f5260045260245ffd5b636c3dba3b60e01b5f523360045260245ffd5b3461029457604036600319011261029457610f0f613724565b6001600160401b03610f1f61377c565b91165f52600960205260405f209060018060a01b03165f52602052602060ff60405f2054166040519015158152f35b3461029457602036600319011261029457610f67613792565b5f516020613cd65f395f51905f5254906001600160401b0360ff8360401c1615921680159081611d84575b6001149081611d7a575b159081611d71575b50611d62578160016001600160401b03195f516020613cd65f395f51905f525416175f516020613cd65f395f51905f5255611d32575b610fe381613ba2565b60016001600160401b0319600454161760045560016001600160401b0319600654161760065560018060a01b03166bffffffffffffffffffffffff60a01b601554161760155560409081516110388382613828565b600881526739b7b630b92fb83b60c11b602082015260015f526013602052825f2081516001600160401b03811161050757611077816103e1845461392e565b6020601f8211600114611cbe57925f516020613cb65f395f51905f52926110b8836110e3946001975f9161183357508160011b915f199060031b1c19161790565b90555b835f526014602052855f208460ff1982541617905585519182916020835260208301906137be565b0390a281516110f28382613828565b600c81526b77696e645f6f6e73686f726560a01b602082015260025f526013602052825f2081516001600160401b03811161050757611135816103e1845461392e565b6020601f8211600114611c6257925f516020613cb65f395f51905f5292611176836111a2946002975f9161183357508160011b915f199060031b1c19161790565b90555b835f526014602052855f20600160ff1982541617905585519182916020835260208301906137be565b0390a281516111b18382613828565b600d81526c77696e645f6f666673686f726560981b602082015260035f526013602052825f2081516001600160401b038111610507576111f5816103e1845461392e565b6020601f8211600114611bef57925f516020613cb65f395f51905f529261117683611236946003975f9161183357508160011b915f199060031b1c19161790565b0390a281516112458382613828565b6005815264687964726f60d81b602082015260045f526013602052825f2081516001600160401b03811161050757611281816103e1845461392e565b6020601f8211600114611b9357925f516020613cb65f395f51905f5292611176836112c2946004975f9161183357508160011b915f199060031b1c19161790565b0390a281516112d18382613828565b600781526662696f6d61737360c81b602082015260055f526013602052825f2081516001600160401b0381116105075761130f816103e1845461392e565b6020601f8211600114611b3757925f516020613cb65f395f51905f529261117683611350946005975f9161183357508160011b915f199060031b1c19161790565b0390a2815161135f8382613828565b600a81526919d95bdd1a195c9b585b60b21b602082015260065f526013602052825f2081516001600160401b038111610507576113a0816103e1845461392e565b6020601f8211600114611adb57925f516020613cb65f395f51905f5292611176836113e1946006975f9161183357508160011b915f199060031b1c19161790565b0390a281516113f08382613828565b600b81526a1bd8d9585b97dd1a59185b60aa1b602082015260075f526013602052825f2081516001600160401b03811161050757611432816103e1845461392e565b6020601f8211600114611a7f57925f516020613cb65f395f51905f529261117683611473946007975f9161183357508160011b915f199060031b1c19161790565b0390a281516114828382613828565b6007815266373ab1b632b0b960c91b602082015260085f526013602052825f2081516001600160401b038111610507576114c0816103e1845461392e565b6020601f8211600114611a2357925f516020613cb65f395f51905f529261117683611501946008975f9161183357508160011b915f199060031b1c19161790565b0390a281516115108382613828565b600b81526a6e61747572616c5f67617360a81b602082015260095f526013602052825f2081516001600160401b03811161050757611552816103e1845461392e565b6020601f82116001146119c757925f516020613cb65f395f51905f529261117683611593946009975f9161183357508160011b915f199060031b1c19161790565b0390a281516115a28382613828565b600481526318dbd85b60e21b6020820152600a5f526013602052825f2081516001600160401b038111610507576115dd816103e1845461392e565b6020601f821160011461196b57925f516020613cb65f395f51905f52926111768361161e94600a975f9161183357508160011b915f199060031b1c19161790565b0390a2815161162d8382613828565b60038152621bda5b60ea1b6020820152600b5f526013602052825f2081516001600160401b03811161050757611667816103e1845461392e565b6020601f821160011461190f57925f516020613cb65f395f51905f5292611176836116a894600b975f9161183357508160011b915f199060031b1c19161790565b0390a281516116b78382613828565b601181527073746f726167655f64697363686172676560781b6020820152600c5f526013602052825f2081516001600160401b038111610507576116ff816103e1845461392e565b6020601f82116001146118b357925f516020613cb65f395f51905f52926111768361174094600c975f9161183357508160011b915f199060031b1c19161790565b0390a2815161174f8382613828565b60128152711a1e591c9bd9d95b97d99d595b17d8d95b1b60721b6020820152600d5f526013602052825f2081516001600160401b03811161050757611798816103e1845461392e565b6020601f821160011461183e57925f516020613cb65f395f51905f5292611176836117d994600d975f9161183357508160011b915f199060031b1c19161790565b0390a26117e257005b60207fc7f505b2f371ae2175ee4913f4499e1f2633a7b5936321eed1cdaeb6115181d29160ff60401b195f516020613cd65f395f51905f5254165f516020613cd65f395f51905f52555160018152a1005b90508401518a6106db565b601f19821690835f52805f20915f5b81811061189b575083600d96935f516020613cb65f395f51905f5296936117d99660019410611883575b5050811b019055611179565b8501515f1960f88460031b161c191690558980611877565b9192602060018192868a01518155019401920161184d565b601f19821690835f52805f20915f5b8181106118f7575083600c96935f516020613cb65f395f51905f5296936117409660019410611883575050811b019055611179565b9192602060018192868a0151815501940192016118c2565b601f19821690835f52805f20915f5b818110611953575083600b96935f516020613cb65f395f51905f5296936116a89660019410611883575050811b019055611179565b9192602060018192868a01518155019401920161191e565b601f19821690835f52805f20915f5b8181106119af575083600a96935f516020613cb65f395f51905f52969361161e9660019410611883575050811b019055611179565b9192602060018192868a01518155019401920161197a565b601f19821690835f52805f20915f5b818110611a0b575083600996935f516020613cb65f395f51905f5296936115939660019410611883575050811b019055611179565b9192602060018192868a0151815501940192016119d6565b601f19821690835f52805f20915f5b818110611a67575083600896935f516020613cb65f395f51905f5296936115019660019410611883575050811b019055611179565b9192602060018192868a015181550194019201611a32565b601f19821690835f52805f20915f5b818110611ac3575083600796935f516020613cb65f395f51905f5296936114739660019410611883575050811b019055611179565b9192602060018192868a015181550194019201611a8e565b601f19821690835f52805f20915f5b818110611b1f575083600696935f516020613cb65f395f51905f5296936113e19660019410611883575050811b019055611179565b9192602060018192868a015181550194019201611aea565b601f19821690835f52805f20915f5b818110611b7b575083600596935f516020613cb65f395f51905f5296936113509660019410611883575050811b019055611179565b9192602060018192868a015181550194019201611b46565b601f19821690835f52805f20915f5b818110611bd7575083600496935f516020613cb65f395f51905f5296936112c29660019410611883575050811b019055611179565b9192602060018192868a015181550194019201611ba2565b601f19821690835f52805f20915f5b818110611c4a575083600396935f516020613cb65f395f51905f5296936112369660019410611c33575050811b019055611179565b8501515f19838a1b60f8161c191690558980611877565b9192602060018192868a015181550194019201611bfe565b601f19821690835f52805f20915f5b818110611ca6575083600296935f516020613cb65f395f51905f5296936111a29660019410611883575050811b019055611179565b9192602060018192868a015181550194019201611c71565b601f19821690835f52805f20915f5b818110611d1a575083600196935f516020613cb65f395f51905f5296936110e396899410611d02575b5050811b0190556110bb565b8501515f1960f88460031b161c191690558980611cf6565b9192602060018192868a015181550194019201611ccd565b600160401b60ff60401b195f516020613cd65f395f51905f525416175f516020613cd65f395f51905f5255610fda565b63f92ee8a960e01b5f5260045ffd5b90501583610fa4565b303b159150610f9c565b839150610f92565b34610294576020366003190112610294576001600160a01b03611dad613792565b165f526002602052602060ff60405f2054166040519015158152f35b3461029457602036600319011261029457611de2613792565b611dea613bf6565b6001600160a01b03165f818152600260205260408120805460ff191690557f62de76ce57d7f1bdcf921ae27bb8abeefa20ed655389dabc18c9e7eec03080489080a2005b3461029457602036600319011261029457611e47613792565b611e4f613bf6565b6001600160a01b03165f818152600260205260408120805460ff191660011790557f2c3901e3fb770eb03de86a9d260bd78efb1582f427318c892172df56e31981199080a2005b346102945761010036600319011261029457600435611eb361373a565b90611ebc613750565b611ec4613766565b90608435611ed06137a8565b9060c4356001600160401b03811161029457611ef090369060040161388e565b60e4356001600160401b03811161029457611f0f9036906004016138bb565b939098335f52600260205260ff60405f20541615610ee3576001600160401b031696875f52600e60205260405f206001600160401b0388165f5260205260405f206001600160401b0382165f5260205260405f205461216b57875f52600f60205260405f206001600160401b0388165f5260205260405f205461214b57875f5260106020526001600160401b0360405f20541680151580612138575b6121145750610e64936001600160401b039693897f98e9ca761ae8324119d4f14a59e2735720bd29c8b9419824f5272d2f61f95ab9999794896120c6958e845f52600f60205260405f20838d165f526020528060405f2055845f52600e60205260405f20838d165f5260205260405f208383165f5260205260405f2055835f52601060205260405f208282168319825416179055835f5260056020528160405f205416845f52600560205260ff60405f205460481c16948515155f146120df575f52600a60205260405f20612081858254613ac4565b90555f52600c60205260405f20612099848254613ac4565b90555b6040519b8c9b168b521660208a01526040890152606088015260c0608088015260c0870191613a5f565b84810360a08601526001600160a01b0390921698613b15565b5f52600b60205260405f206120f5858254613ac4565b90555f52600d60205260405f2061210d848254613ac4565b905561209c565b876001600160401b03918a631be91f1160e11b5f526004526024521660445260645ffd5b50806001600160401b0389161415611fab565b6001600160401b038789632569263b60e21b5f526004521660245260445ffd5b6001600160401b039081888a6329deb04b60e11b5f52600452166024521660445260645ffd5b34610294575f366003190112610294576121d86040516121b2604082613828565b60058152640352e302e360dc1b60208201526040519182916020835260208301906137be565b0390f35b346102945760203660031901126102945760ff6121f76137e2565b165f5260136020526121d861220e60405f20613966565b6040519182916020835260208301906137be565b346102945760403660031901126102945761223b613724565b61224361373a565b906001600160401b03811691825f52600560205260ff60405f205460401c16156124a057825f5260056020526001600160401b038060405f2054169161228883613b39565b1692835f52600360205260ff60405f205460a01c161561248d57805f52600a60205260405f2054815f52600b60205260405f20549080612455575b508061241d575b50815f52600760205260405f20928354935f5b85811061233f575b86858561231986825f52600560205260405f20856001600160401b0319825416179055845f52600760205260405f20613af2565b7f6ecf7bcf6f3febd589d55f29eb18f67b74d65bbcf542dc5765fc8630d0f66a3c5f80a4005b836001600160401b036123528385613ad1565b90549060031b1c1614612367576001016122dd565b5f95919394951982019182116124095761239e6001600160401b0361238f6123bd9487613ad1565b90549060031b1c169185613ad1565b9091906001600160401b038084549260031b9316831b921b1916179055565b81549182156123f557612319925f1901906123d88282613ad1565b6001600160401b0382549160031b1b1916905555839291866122e5565b634e487b7160e01b5f52603160045260245ffd5b634e487b7160e01b5f52601160045260245ffd5b825f52600d60205260405f20612434828254613ab7565b9055845f52600d60205261244d60405f20918254613ac4565b9055846122ca565b835f52600c60205260405f2061246c828254613ab7565b9055855f52600c60205261248560405f20918254613ac4565b9055856122c3565b83634caa74a960e01b5f5260045260245ffd5b82630e32d1c960e11b5f5260045260245ffd5b34610294576020366003190112610294576124cc6137e2565b6015546001600160a01b0316330361079f5760ff16805f52601460205260ff60405f205416156125b857805f5260136020527f1909a652351337b0592c4b6e05975b25883f8595ddb55b690b45fc2b27bdd6b061071c61252e60405f20613966565b835f52601460205260405f2060ff198154169055835f52601360205260405f20612558815461392e565b9081612575575b50506040519182916020835260208301906137be565b81601f5f931160011461258c5750555b848061255f565b818352602083206125a891601f0160051c810190600101613a06565b8082528160208120915555612585565b6387d5b87b60e01b5f5260045260245ffd5b34610294576020366003190112610294576001600160401b036125eb613724565b6060806040516125fa8161380d565b5f81525f60208201525f60408201520152165f5260056020526001600160401b0360405f206121d86040519161262f8361380d565b60ff8154858116855261265e60016020870194848460401c161515865284604089019460481c16845201613966565b926060860193845260405196879660208852511660208701525115156040860152511660608401525160808084015260a08301906137be565b34610294576126a5366138eb565b918215610c00576001600160401b0316805f52600560205260ff60405f205460401c1615610bee57805f5260056020526126eb6001600160401b0360405f205416613b39565b5f5b8381106126f657005b815f52600860205260405f20612710610b2f838787613a7f565b60018060a01b03165f5260205260ff60405f2054166127a057600190825f52600860205260405f20612746610b2f838888613a7f565b838060a01b03165f5260205260405f208260ff19825416179055818060a01b03612774610b2f838888613a7f565b16837f4e58dd0c2b41fcffc97dfc67039bd0284456c764b7697bad230deff4354b6bd05f80a3016126ed565b610b2f9193610a9993613a7f565b34610294576020366003190112610294576001600160401b036127cf613724565b165f52600b602052602060405f2054604051908152f35b34610294576040366003190112610294576127ff613724565b6001600160401b0361280f61377c565b9161281981613b39565b1690815f52600960205260405f2060018060a01b0382165f5260205260ff60405f20541661289a575f8281526009602090815260408083206001600160a01b0394909416808452939091528120805460ff191660011790559091907f5305cd634ab7e87b6a944731a9389624aa32e480df922a6a3f05a7b74cb26e5f9080a3005b63f9b7afc560e01b5f5260018060a01b03166004525f60245260445ffd5b34610294575f366003190112610294575f546040516001600160a01b039091168152602090f35b34610294576060366003190112610294576128f8613724565b61290061373a565b6001600160401b03612910613750565b92165f52600e6020526001600160401b0360405f2091165f526020526001600160401b0360405f2091165f52602052602060405f2054604051908152f35b3461029457604036600319011261029457612967613724565b6001600160401b0361297761377c565b91165f52600860205260405f209060018060a01b03165f52602052602060ff60405f2054166040519015158152f35b34610294576020366003190112610294576001600160401b036129c7613724565b165f52600c602052602060405f2054604051908152f35b34610294575f36600319011261029457600154336001600160a01b0390911603612a0d57612a0b33613ba2565b005b63118cdaa760e01b5f523360045260245ffd5b34610294576020366003190112610294576004356001600160401b03811161029457612a5090369060040161388e565b600454906001600160401b038216916001600160401b036001840116906001600160401b0319161760045560405192612a88846137f2565b33845260016020850194818652612aa0368585613849565b60408281019182525f87815260036020522091518254975160ff60a01b1960a086811b87900393909316166001600160a81b031990991698909817971515901b60ff60a01b169690961781559451805195909291016001600160401b03861161050757858593612b1c602098612b16855461392e565b85613a1c565b8790601f8311600114612b9d57827f5a1597dfa7b145f29449939dab0f98ca4b4562846b9f80fccafb144e1af9e0569593612b879593612b70935f92612b925750508160011b915f199060031b1c19161790565b90555b604051918291888352339689840191613a5f565b0390a3604051908152f35b015190508b80610424565b90601f19831691845f52815f20925f5b818110612c0e57509260019285927f5a1597dfa7b145f29449939dab0f98ca4b4562846b9f80fccafb144e1af9e0569896612b87989610612bf6575b505050811b019055612b73565b01515f1960f88460031b161c191690558a8080612be9565b8284015185558a9850600190940193928b01928b01612bad565b3461029457604036600319011261029457612c41613724565b6001600160401b03612c5161373a565b91165f52600f6020526001600160401b0360405f2091165f52602052602060405f2054604051908152f35b34610294575f3660031901126102945760405162461bcd60e51b815260206004820152601160248201527014995b9bdd5b98d948191a5cd8589b1959607a1b6044820152606490fd5b346102945760c036600319011261029457612cde61373a565b612ce6613750565b50612cef613766565b50612cf86137a8565b50335f52600260205260ff60405f20541615610ee3576001600160401b0390631f698ec960e11b5f521660045260245ffd5b34610294576020366003190112610294576004355f526011602052602060405f2054604051908152f35b3461029457604036600319011261029457612d6d613724565b6001600160401b03612d7d61377c565b91612d8781613b39565b165f81815260036020526040812080546001600160a01b039485166001600160a01b03198216811790925590931691907f13365eb639966596cc8d105f9cd9ddc33e5edd691d0c57ef468ee2fe08247a0b9080a4005b34610294575f366003190112610294577f00000000000000000000000000000000000000000000000000000000000000006001600160a01b03163003612e345760206040515f516020613c965f395f51905f528152f35b63703e46dd60e11b5f5260045ffd5b3461029457602036600319011261029457612e5c613792565b601554906001600160a01b038216903382900361079f576001600160a01b03166001600160a01b03199290921682176015557f1a5adf9136db9fa42a2003f5f98924312c2cf96afb14141986d987e7588b5c815f80a3005b604036600319011261029457612ec8613792565b6024356001600160401b038111610294573660238201121561029457612ef8903690602481600401359101613849565b906001600160a01b037f00000000000000000000000000000000000000000000000000000000000000001630811490811561305d575b50612e3457612f3b613bf6565b6040516352d1902d60e01b81526001600160a01b0382169290602081600481875afa5f9181613029575b50612f7d5783634c9c8ce360e01b5f5260045260245ffd5b805f516020613c965f395f51905f528592036130175750823b15613005575f516020613c965f395f51905f5280546001600160a01b031916821790557fbc7cd75a20ee27fd9adebab32041f755214dbc6bffa90cc0225b39da2e5c2d3b5f80a2805115612fed57612a0b91613c09565b505034612ff657005b63b398979f60e01b5f5260045ffd5b634c9c8ce360e01b5f5260045260245ffd5b632a87526960e21b5f5260045260245ffd5b9091506020813d602011613055575b8161304560209383613828565b8101031261029457519085612f65565b3d9150613038565b5f516020613c965f395f51905f52546001600160a01b03161415905083612f2e565b34610294576020366003190112610294576001600160401b036130a0613724565b165f5260126020526121d861220e60405f20613966565b34610294576040366003190112610294576130d0613724565b6001600160401b036130e061377c565b916130ea81613b39565b1690815f52600960205260405f2060018060a01b0382165f5260205260ff60405f20541615613169575f8281526009602090815260408083206001600160a01b0394909416808452939091528120805460ff191690559091907f8471f6c4ec766e3c7c08849aae3786382bd72569768238919cfc735e184eacd09080a3005b63b9812f2560e01b5f5260018060a01b03166004525f60245260445ffd5b34610294576020366003190112610294576001600160401b036131a8613724565b16805f52600560205260ff60405f205460401c1615610bee57805f5260056020526131df6001600160401b0360405f205416613b39565b805f52600560205260405f2060ff60401b1981541690557f6db5ae2a4467f2b4f78761dc867939c9e9ca2a546324835f6ee295700c8762735f80a2005b34610294576020366003190112610294576001600160401b0361323d613724565b165f526005602052602060ff60405f205460481c16604051908152f35b34610294576020366003190112610294576001600160401b0361327b613724565b165f52600760205260405f2060405190818260208354928381520180935f5260205f20925f905b806003830110613388576132db94549181811061336e575b818110613351575b818110613334575b10613326575b509392930382613828565b604051918291602083019060208452518091526040830191905f5b818110613304575050500390f35b82516001600160401b03168452859450602093840193909201916001016132f6565b60c01c8152602001856132d0565b9260206001916001600160401b038560801c1681520193016132ca565b9260206001916001600160401b038560401c1681520193016132c2565b9260206001916001600160401b03851681520193016132ba565b916004919350608060019186546001600160401b03811682526001600160401b038160401c1660208301526001600160401b0381841c16604083015260c01c60608201520194019201859293916132a2565b346102945760203660031901126102945760ff6133f56137e2565b165f526014602052602060ff60405f2054166040519015158152f35b34610294576020366003190112610294576001600160401b03613432613724565b165f52600a602052602060405f2054604051908152f35b34610294576020366003190112610294576001600160401b0361346a613724565b165f52600d602052602060405f2054604051908152f35b34610294576020366003190112610294576001600160401b036134a2613724565b6060604080516134b1816137f2565b5f81525f60208201520152165f52600360205260405f206040516134d4816137f2565b81546001600160a01b038116825260a01c60ff16151560208201908152916121d89061350290600101613966565b604083019081526040519384936020855260018060a01b03905116602085015251151560408401525160608084015260808301906137be565b3461029457604036600319011261029457613554613724565b6001600160401b0361356461377c565b911690815f52600560205260ff60405f205460401c16156109a557815f52600560205261359d6001600160401b0360405f205416613b39565b815f52600860205260405f2060018060a01b0382165f5260205260ff60405f20541615610bd1575f8281526008602090815260408083206001600160a01b0394909416808452939091528120805460ff191690559091907f4ac18daf67a0b52ad2f8f428c174339e0812f25a43cb0cc96a0b22605c48bb6c9080a3005b34610294576020366003190112610294576001600160401b0361363b613724565b165f526005602052602060ff60405f205460401c166040519015158152f35b34610294576020366003190112610294576001600160401b0361367b613724565b165f526003602052602060ff60405f205460a01c166040519015158152f35b34610294576020366003190112610294576001600160401b036136bb613724565b165f52600560205260206001600160401b0360405f205416604051908152f35b34610294575f3660031901126102945760206001600160401b0360065416604051908152f35b34610294575f366003190112610294576015546001600160a01b03168152602090f35b600435906001600160401b038216820361029457565b602435906001600160401b038216820361029457565b604435906001600160401b038216820361029457565b606435906001600160401b038216820361029457565b602435906001600160a01b038216820361029457565b600435906001600160a01b038216820361029457565b60a435906001600160a01b038216820361029457565b805180835260209291819084018484015e5f828201840152601f01601f1916010190565b6004359060ff8216820361029457565b606081019081106001600160401b0382111761050757604052565b608081019081106001600160401b0382111761050757604052565b90601f801991011681019081106001600160401b0382111761050757604052565b9291926001600160401b0382116105075760405191613872601f8201601f191660200184613828565b829481845281830111610294578281602093845f960137010152565b9181601f84011215610294578235916001600160401b038311610294576020838186019501011161029457565b9181601f84011215610294578235916001600160401b038311610294576020808501948460051b01011161029457565b906040600319830112610294576004356001600160401b03811681036102945791602435906001600160401b0382116102945761392a916004016138bb565b9091565b90600182811c9216801561395c575b602083101461394857565b634e487b7160e01b5f52602260045260245ffd5b91607f169161393d565b9060405191825f8254926139798461392e565b80845293600181169081156139e457506001146139a0575b5061399e92500383613828565b565b90505f9291925260205f20905f915b8183106139c857505090602061399e928201015f613991565b60209193508060019154838589010152019101909184926139af565b90506020925061399e94915060ff191682840152151560051b8201015f613991565b818110613a11575050565b5f8155600101613a06565b9190601f8111613a2b57505050565b61399e925f5260205f20906020601f840160051c83019310613a55575b601f0160051c0190613a06565b9091508190613a48565b908060209392818452848401375f828201840152601f01601f1916010190565b9190811015613a8f5760051b0190565b634e487b7160e01b5f52603260045260245ffd5b356001600160a01b03811681036102945790565b9190820391821161240957565b9190820180921161240957565b9190918054831015613a8f575f52601860205f208360021c019260031b1690565b90815491600160401b831015610507578261239e91600161399e95018155613ad1565b81835290916001600160fb1b0383116102945760209260051b809284830137010190565b6001600160401b0316805f52600360205260ff60405f205460a01c1615613b90575f818152600360205260409020546001600160a01b03163303613b7a5750565b631dd9a8d760e21b5f523360045260245260445ffd5b634caa74a960e01b5f5260045260245ffd5b600180546001600160a01b03199081169091555f80549182166001600160a01b03938416908117825592909116907f8be0079c531659141344cd1fd0a4f28419497f9722a3daafe3b4186f6b6457e09080a3565b5f546001600160a01b03163303612a0d57565b905f8091602081519101845af48080613c82575b15613c3d5750506040513d81523d5f602083013e60203d82010160405290565b15613c6257639996b31560e01b5f9081526001600160a01b0391909116600452602490fd5b3d15613c73576040513d5f823e3d90fd5b63d6bda27560e01b5f5260045ffd5b503d151580613c1d5750813b1515613c1d56fe360894a13ba1a3210667c828492db98dca3e2076cc3735a920a3ca505d382bbc972caa39e72480d61337cd25d7b5b5514458f8818decab9c58788717f7905e27f0c57e16840df040f15088dc2f81fe391c3923bec73e23a9662efc9c229c6a00a26469706673582212205fceda1c3d1f0345c96b7a8aa3cb94240fd1de315eca25a9d86329a9c7d97bf964736f6c634300081c0033f0c57e16840df040f15088dc2f81fe391c3923bec73e23a9662efc9c229c6a00",
  "linkReferences": {},
  "deployedLinkReferences": {},
  "immutableReferences": {
    "1841": [
      {
        "length": 32,
        "start": 11759
      },
      {
        "length": 32,
        "start": 12035
      }
    ]
  },
  "inputSourceName": "project/contracts/EnergyRegistry.sol",
  "buildInfoId": "solc-0_8_28-84908c51846f911b704dc631ac3169c24326d827"
}