{
  "_format": "hh3-artifact-1",
  "contractName": "EnergyRegistry",
  "sourceName": "contracts/EnergyRegistry.sol",
  "abi": [
    {
      "inputs": [],
      "stateMutability": "nonpayable",
      "type": "constructor"
    },
    {
      "inputs": [
        {
          "internalType": "bytes32",
          "name": "uid",
          "type": "bytes32"
        }
      ],
      "name": "AttestationAlreadyReplaced",
      "type": "error"
    },
    {
      "inputs": [
        {
          "internalType": "bytes32",
          "name": "uid",
          "type": "bytes32"
        }
      ],
      "name": "AttestationNotFound",
      "type": "error"
    },
    {
      "inputs": [
        {
          "internalType": "address",
          "name": "attester",
          "type": "address"
        },
        {
          "internalType": "uint64",
          "name": "projectId",
          "type": "uint64"
        }
      ],
      "name": "AttesterAlreadyAuthorized",
      "type": "error"
    },
    {
      "inputs": [
        {
          "internalType": "address",
          "name": "attester",
          "type": "address"
        },
        {
          "internalType": "uint64",
          "name": "projectId",
          "type": "uint64"
        }
      ],
      "name": "AttesterNotAuthorized",
      "type": "error"
    },
    {
      "inputs": [
        {
          "internalType": "uint64",
          "name": "projectId",
          "type": "uint64"
        }
      ],
      "name": "DirectRevocationBlocked",
      "type": "error"
    },
    {
      "inputs": [],
      "name": "EmptyAttesterArray",
      "type": "error"
    },
    {
      "inputs": [
        {
          "internalType": "uint8",
          "name": "id",
          "type": "uint8"
        }
      ],
      "name": "EnergyTypeNotRegistered",
      "type": "error"
    },
    {
      "inputs": [
        {
          "internalType": "uint8",
          "name": "energyType",
          "type": "uint8"
        }
      ],
      "name": "InvalidEnergyType",
      "type": "error"
    },
    {
      "inputs": [
        {
          "internalType": "uint64",
          "name": "projectId",
          "type": "uint64"
        },
        {
          "internalType": "uint64",
          "name": "expectedFrom",
          "type": "uint64"
        },
        {
          "internalType": "uint64",
          "name": "actualFrom",
          "type": "uint64"
        }
      ],
      "name": "NonSequentialAttestation",
      "type": "error"
    },
    {
      "inputs": [
        {
          "internalType": "address",
          "name": "owner",
          "type": "address"
        }
      ],
      "name": "OwnableInvalidOwner",
      "type": "error"
    },
    {
      "inputs": [
        {
          "internalType": "address",
          "name": "account",
          "type": "address"
        }
      ],
      "name": "OwnableUnauthorizedAccount",
      "type": "error"
    },
    {
      "inputs": [
        {
          "internalType": "uint64",
          "name": "projectId",
          "type": "uint64"
        },
        {
          "internalType": "uint64",
          "name": "fromTimestamp",
          "type": "uint64"
        },
        {
          "internalType": "uint64",
          "name": "toTimestamp",
          "type": "uint64"
        }
      ],
      "name": "PeriodAlreadyAttested",
      "type": "error"
    },
    {
      "inputs": [
        {
          "internalType": "uint64",
          "name": "projectId",
          "type": "uint64"
        },
        {
          "internalType": "uint64",
          "name": "fromTimestamp",
          "type": "uint64"
        }
      ],
      "name": "PeriodStartAlreadyAttested",
      "type": "error"
    },
    {
      "inputs": [
        {
          "internalType": "uint64",
          "name": "projectId",
          "type": "uint64"
        }
      ],
      "name": "ProjectNotRegistered",
      "type": "error"
    },
    {
      "inputs": [
        {
          "internalType": "uint64",
          "name": "projectId",
          "type": "uint64"
        },
        {
          "internalType": "uint64",
          "name": "expectedFrom",
          "type": "uint64"
        },
        {
          "internalType": "uint64",
          "name": "actualFrom",
          "type": "uint64"
        },
        {
          "internalType": "uint64",
          "name": "expectedTo",
          "type": "uint64"
        },
        {
          "internalType": "uint64",
          "name": "actualTo",
          "type": "uint64"
        }
      ],
      "name": "ReplacementPeriodMismatch",
      "type": "error"
    },
    {
      "inputs": [
        {
          "internalType": "address",
          "name": "caller",
          "type": "address"
        }
      ],
      "name": "UnauthorizedEnergyTypeAdmin",
      "type": "error"
    },
    {
      "inputs": [
        {
          "internalType": "address",
          "name": "caller",
          "type": "address"
        }
      ],
      "name": "UnauthorizedResolver",
      "type": "error"
    },
    {
      "inputs": [
        {
          "internalType": "address",
          "name": "caller",
          "type": "address"
        },
        {
          "internalType": "uint64",
          "name": "watcherId",
          "type": "uint64"
        }
      ],
      "name": "UnauthorizedWatcherOwner",
      "type": "error"
    },
    {
      "inputs": [
        {
          "internalType": "uint64",
          "name": "watcherId",
          "type": "uint64"
        }
      ],
      "name": "WatcherNotRegistered",
      "type": "error"
    },
    {
      "anonymous": false,
      "inputs": [
        {
          "indexed": true,
          "internalType": "uint64",
          "name": "projectId",
          "type": "uint64"
        },
        {
          "indexed": true,
          "internalType": "address",
          "name": "attester",
          "type": "address"
        }
      ],
      "name": "AttesterAdded",
      "type": "event"
    },
    {
      "anonymous": false,
      "inputs": [
        {
          "indexed": true,
          "internalType": "uint64",
          "name": "projectId",
          "type": "uint64"
        },
        {
          "indexed": true,
          "internalType": "address",
          "name": "attester",
          "type": "address"
        }
      ],
      "name": "AttesterRemoved",
      "type": "event"
    },
    {
      "anonymous": false,
      "inputs": [
        {
          "indexed": true,
          "internalType": "uint64",
          "name": "projectId",
          "type": "uint64"
        },
        {
          "indexed": true,
          "internalType": "bytes32",
          "name": "uid",
          "type": "bytes32"
        },
        {
          "indexed": false,
          "internalType": "uint64",
          "name": "fromTimestamp",
          "type": "uint64"
        },
        {
          "indexed": false,
          "internalType": "uint64",
          "name": "toTimestamp",
          "type": "uint64"
        },
        {
          "indexed": false,
          "internalType": "uint256",
          "name": "energyWh",
          "type": "uint256"
        },
        {
          "indexed": true,
          "internalType": "address",
          "name": "attester",
          "type": "address"
        },
        {
          "indexed": false,
          "internalType": "uint8",
          "name": "energyType",
          "type": "uint8"
        },
        {
          "indexed": false,
          "internalType": "string",
          "name": "metadataURI",
          "type": "string"
        },
        {
          "indexed": false,
          "internalType": "uint256[]",
          "name": "readings",
          "type": "uint256[]"
        }
      ],
      "name": "EnergyAttested",
      "type": "event"
    },
    {
      "anonymous": false,
      "inputs": [
        {
          "indexed": true,
          "internalType": "uint64",
          "name": "projectId",
          "type": "uint64"
        },
        {
          "indexed": true,
          "internalType": "bytes32",
          "name": "oldUid",
          "type": "bytes32"
        },
        {
          "indexed": false,
          "internalType": "bytes32",
          "name": "newUid",
          "type": "bytes32"
        },
        {
          "indexed": false,
          "internalType": "uint64",
          "name": "fromTimestamp",
          "type": "uint64"
        },
        {
          "indexed": false,
          "internalType": "uint64",
          "name": "toTimestamp",
          "type": "uint64"
        },
        {
          "indexed": false,
          "internalType": "uint256",
          "name": "oldEnergyWh",
          "type": "uint256"
        },
        {
          "indexed": false,
          "internalType": "uint256",
          "name": "newEnergyWh",
          "type": "uint256"
        },
        {
          "indexed": true,
          "internalType": "address",
          "name": "attester",
          "type": "address"
        },
        {
          "indexed": false,
          "internalType": "string",
          "name": "metadataURI",
          "type": "string"
        }
      ],
      "name": "EnergyReplaced",
      "type": "event"
    },
    {
      "anonymous": false,
      "inputs": [
        {
          "indexed": true,
          "internalType": "uint64",
          "name": "projectId",
          "type": "uint64"
        },
        {
          "indexed": false,
          "internalType": "uint256",
          "name": "energyWh",
          "type": "uint256"
        },
        {
          "indexed": true,
          "internalType": "address",
          "name": "attester",
          "type": "address"
        },
        {
          "indexed": false,
          "internalType": "uint8",
          "name": "energyType",
          "type": "uint8"
        }
      ],
      "name": "EnergyRevoked",
      "type": "event"
    },
    {
      "anonymous": false,
      "inputs": [
        {
          "indexed": true,
          "internalType": "address",
          "name": "previousAdmin",
          "type": "address"
        },
        {
          "indexed": true,
          "internalType": "address",
          "name": "newAdmin",
          "type": "address"
        }
      ],
      "name": "EnergyTypeAdminTransferred",
      "type": "event"
    },
    {
      "anonymous": false,
      "inputs": [
        {
          "indexed": true,
          "internalType": "uint8",
          "name": "id",
          "type": "uint8"
        },
        {
          "indexed": false,
          "internalType": "string",
          "name": "name",
          "type": "string"
        }
      ],
      "name": "EnergyTypeRegistered",
      "type": "event"
    },
    {
      "anonymous": false,
      "inputs": [
        {
          "indexed": true,
          "internalType": "uint8",
          "name": "id",
          "type": "uint8"
        },
        {
          "indexed": false,
          "internalType": "string",
          "name": "name",
          "type": "string"
        }
      ],
      "name": "EnergyTypeRemoved",
      "type": "event"
    },
    {
      "anonymous": false,
      "inputs": [
        {
          "indexed": true,
          "internalType": "address",
          "name": "previousOwner",
          "type": "address"
        },
        {
          "indexed": true,
          "internalType": "address",
          "name": "newOwner",
          "type": "address"
        }
      ],
      "name": "OwnershipTransferStarted",
      "type": "event"
    },
    {
      "anonymous": false,
      "inputs": [
        {
          "indexed": true,
          "internalType": "address",
          "name": "previousOwner",
          "type": "address"
        },
        {
          "indexed": true,
          "internalType": "address",
          "name": "newOwner",
          "type": "address"
        }
      ],
      "name": "OwnershipTransferred",
      "type": "event"
    },
    {
      "anonymous": false,
      "inputs": [
        {
          "indexed": true,
          "internalType": "uint64",
          "name": "projectId",
          "type": "uint64"
        }
      ],
      "name": "ProjectDeregistered",
      "type": "event"
    },
    {
      "anonymous": false,
      "inputs": [
        {
          "indexed": true,
          "internalType": "uint64",
          "name": "projectId",
          "type": "uint64"
        },
        {
          "indexed": false,
          "internalType": "string",
          "name": "uri",
          "type": "string"
        }
      ],
      "name": "ProjectMetadataURISet",
      "type": "event"
    },
    {
      "anonymous": false,
      "inputs": [
        {
          "indexed": true,
          "internalType": "uint64",
          "name": "projectId",
          "type": "uint64"
        },
        {
          "indexed": true,
          "internalType": "uint64",
          "name": "watcherId",
          "type": "uint64"
        },
        {
          "indexed": false,
          "internalType": "string",
          "name": "name",
          "type": "string"
        },
        {
          "indexed": false,
          "internalType": "uint8",
          "name": "energyType",
          "type": "uint8"
        }
      ],
      "name": "ProjectRegistered",
      "type": "event"
    },
    {
      "anonymous": false,
      "inputs": [
        {
          "indexed": true,
          "internalType": "uint64",
          "name": "projectId",
          "type": "uint64"
        },
        {
          "indexed": true,
          "internalType": "uint64",
          "name": "fromWatcherId",
          "type": "uint64"
        },
        {
          "indexed": true,
          "internalType": "uint64",
          "name": "toWatcherId",
          "type": "uint64"
        }
      ],
      "name": "ProjectTransferred",
      "type": "event"
    },
    {
      "anonymous": false,
      "inputs": [
        {
          "indexed": true,
          "internalType": "address",
          "name": "resolver",
          "type": "address"
        }
      ],
      "name": "ResolverAuthorized",
      "type": "event"
    },
    {
      "anonymous": false,
      "inputs": [
        {
          "indexed": true,
          "internalType": "address",
          "name": "resolver",
          "type": "address"
        }
      ],
      "name": "ResolverDeauthorized",
      "type": "event"
    },
    {
      "anonymous": false,
      "inputs": [
        {
          "indexed": true,
          "internalType": "uint64",
          "name": "watcherId",
          "type": "uint64"
        },
        {
          "indexed": true,
          "internalType": "address",
          "name": "attester",
          "type": "address"
        }
      ],
      "name": "WatcherAttesterAdded",
      "type": "event"
    },
    {
      "anonymous": false,
      "inputs": [
        {
          "indexed": true,
          "internalType": "uint64",
          "name": "watcherId",
          "type": "uint64"
        },
        {
          "indexed": true,
          "internalType": "address",
          "name": "attester",
          "type": "address"
        }
      ],
      "name": "WatcherAttesterRemoved",
      "type": "event"
    },
    {
      "anonymous": false,
      "inputs": [
        {
          "indexed": true,
          "internalType": "uint64",
          "name": "watcherId",
          "type": "uint64"
        },
        {
          "indexed": true,
          "internalType": "address",
          "name": "previousOwner",
          "type": "address"
        },
        {
          "indexed": true,
          "internalType": "address",
          "name": "newOwner",
          "type": "address"
        }
      ],
      "name": "WatcherOwnershipTransferred",
      "type": "event"
    },
    {
      "anonymous": false,
      "inputs": [
        {
          "indexed": true,
          "internalType": "uint64",
          "name": "watcherId",
          "type": "uint64"
        },
        {
          "indexed": false,
          "internalType": "string",
          "name": "name",
          "type": "string"
        },
        {
          "indexed": true,
          "internalType": "address",
          "name": "owner",
          "type": "address"
        }
      ],
      "name": "WatcherRegistered",
      "type": "event"
    },
    {
      "inputs": [],
      "name": "acceptOwnership",
      "outputs": [],
      "stateMutability": "nonpayable",
      "type": "function"
    },
    {
      "inputs": [
        {
          "internalType": "uint64",
          "name": "projectId",
          "type": "uint64"
        },
        {
          "internalType": "address",
          "name": "attester",
          "type": "address"
        }
      ],
      "name": "addAttester",
      "outputs": [],
      "stateMutability": "nonpayable",
      "type": "function"
    },
    {
      "inputs": [
        {
          "internalType": "uint64",
          "name": "projectId",
          "type": "uint64"
        },
        {
          "internalType": "address[]",
          "name": "attesters",
          "type": "address[]"
        }
      ],
      "name": "addAttesters",
      "outputs": [],
      "stateMutability": "nonpayable",
      "type": "function"
    },
    {
      "inputs": [
        {
          "internalType": "uint64",
          "name": "watcherId",
          "type": "uint64"
        },
        {
          "internalType": "address",
          "name": "attester",
          "type": "address"
        }
      ],
      "name": "addWatcherAttester",
      "outputs": [],
      "stateMutability": "nonpayable",
      "type": "function"
    },
    {
      "inputs": [
        {
          "internalType": "address",
          "name": "resolver",
          "type": "address"
        }
      ],
      "name": "authorizeResolver",
      "outputs": [],
      "stateMutability": "nonpayable",
      "type": "function"
    },
    {
      "inputs": [
        {
          "internalType": "address",
          "name": "resolver",
          "type": "address"
        }
      ],
      "name": "deauthorizeResolver",
      "outputs": [],
      "stateMutability": "nonpayable",
      "type": "function"
    },
    {
      "inputs": [
        {
          "internalType": "uint64",
          "name": "projectId",
          "type": "uint64"
        }
      ],
      "name": "deregisterProject",
      "outputs": [],
      "stateMutability": "nonpayable",
      "type": "function"
    },
    {
      "inputs": [
        {
          "internalType": "uint64",
          "name": "projectId",
          "type": "uint64"
        },
        {
          "internalType": "uint64",
          "name": "fromTimestamp",
          "type": "uint64"
        }
      ],
      "name": "getAttestedPeriodStartUID",
      "outputs": [
        {
          "internalType": "bytes32",
          "name": "",
          "type": "bytes32"
        }
      ],
      "stateMutability": "view",
      "type": "function"
    },
    {
      "inputs": [
        {
          "internalType": "uint64",
          "name": "projectId",
          "type": "uint64"
        },
        {
          "internalType": "uint64",
          "name": "fromTimestamp",
          "type": "uint64"
        },
        {
          "internalType": "uint64",
          "name": "toTimestamp",
          "type": "uint64"
        }
      ],
      "name": "getAttestedPeriodUID",
      "outputs": [
        {
          "internalType": "bytes32",
          "name": "",
          "type": "bytes32"
        }
      ],
      "stateMutability": "view",
      "type": "function"
    },
    {
      "inputs": [],
      "name": "getEnergyTypeAdmin",
      "outputs": [
        {
          "internalType": "address",
          "name": "",
          "type": "address"
        }
      ],
      "stateMutability": "view",
      "type": "function"
    },
    {
      "inputs": [
        {
          "internalType": "uint8",
          "name": "id",
          "type": "uint8"
        }
      ],
      "name": "getEnergyTypeName",
      "outputs": [
        {
          "internalType": "string",
          "name": "",
          "type": "string"
        }
      ],
      "stateMutability": "view",
      "type": "function"
    },
    {
      "inputs": [],
      "name": "getNextProjectId",
      "outputs": [
        {
          "internalType": "uint64",
          "name": "",
          "type": "uint64"
        }
      ],
      "stateMutability": "view",
      "type": "function"
    },
    {
      "inputs": [],
      "name": "getNextWatcherId",
      "outputs": [
        {
          "internalType": "uint64",
          "name": "",
          "type": "uint64"
        }
      ],
      "stateMutability": "view",
      "type": "function"
    },
    {
      "inputs": [
        {
          "internalType": "uint64",
          "name": "projectId",
          "type": "uint64"
        }
      ],
      "name": "getProject",
      "outputs": [
        {
          "components": [
            {
              "internalType": "uint64",
              "name": "watcherId",
              "type": "uint64"
            },
            {
              "internalType": "bool",
              "name": "registered",
              "type": "bool"
            },
            {
              "internalType": "uint8",
              "name": "energyType",
              "type": "uint8"
            },
            {
              "internalType": "string",
              "name": "name",
              "type": "string"
            }
          ],
          "internalType": "struct EnergyRegistry.Project",
          "name": "",
          "type": "tuple"
        }
      ],
      "stateMutability": "view",
      "type": "function"
    },
    {
      "inputs": [
        {
          "internalType": "uint64",
          "name": "projectId",
          "type": "uint64"
        }
      ],
      "name": "getProjectEnergyType",
      "outputs": [
        {
          "internalType": "uint8",
          "name": "",
          "type": "uint8"
        }
      ],
      "stateMutability": "view",
      "type": "function"
    },
    {
      "inputs": [
        {
          "internalType": "uint64",
          "name": "projectId",
          "type": "uint64"
        }
      ],
      "name": "getProjectLastTimestamp",
      "outputs": [
        {
          "internalType": "uint64",
          "name": "",
          "type": "uint64"
        }
      ],
      "stateMutability": "view",
      "type": "function"
    },
    {
      "inputs": [
        {
          "internalType": "uint64",
          "name": "projectId",
          "type": "uint64"
        }
      ],
      "name": "getProjectMetadataURI",
      "outputs": [
        {
          "internalType": "string",
          "name": "",
          "type": "string"
        }
      ],
      "stateMutability": "view",
      "type": "function"
    },
    {
      "inputs": [
        {
          "internalType": "uint64",
          "name": "projectId",
          "type": "uint64"
        }
      ],
      "name": "getProjectType",
      "outputs": [
        {
          "internalType": "uint8",
          "name": "",
          "type": "uint8"
        }
      ],
      "stateMutability": "view",
      "type": "function"
    },
    {
      "inputs": [
        {
          "internalType": "uint64",
          "name": "projectId",
          "type": "uint64"
        }
      ],
      "name": "getProjectWatcherId",
      "outputs": [
        {
          "internalType": "uint64",
          "name": "",
          "type": "uint64"
        }
      ],
      "stateMutability": "view",
      "type": "function"
    },
    {
      "inputs": [
        {
          "internalType": "bytes32",
          "name": "uid",
          "type": "bytes32"
        }
      ],
      "name": "getReplacementUID",
      "outputs": [
        {
          "internalType": "bytes32",
          "name": "",
          "type": "bytes32"
        }
      ],
      "stateMutability": "view",
      "type": "function"
    },
    {
      "inputs": [
        {
          "internalType": "uint64",
          "name": "projectId",
          "type": "uint64"
        }
      ],
      "name": "getTotalConsumedEnergy",
      "outputs": [
        {
          "internalType": "uint256",
          "name": "",
          "type": "uint256"
        }
      ],
      "stateMutability": "view",
      "type": "function"
    },
    {
      "inputs": [
        {
          "internalType": "uint64",
          "name": "watcherId",
          "type": "uint64"
        }
      ],
      "name": "getTotalConsumedEnergyByWatcher",
      "outputs": [
        {
          "internalType": "uint256",
          "name": "",
          "type": "uint256"
        }
      ],
      "stateMutability": "view",
      "type": "function"
    },
    {
      "inputs": [
        {
          "internalType": "uint64",
          "name": "projectId",
          "type": "uint64"
        }
      ],
      "name": "getTotalGeneratedEnergy",
      "outputs": [
        {
          "internalType": "uint256",
          "name": "",
          "type": "uint256"
        }
      ],
      "stateMutability": "view",
      "type": "function"
    },
    {
      "inputs": [
        {
          "internalType": "uint64",
          "name": "watcherId",
          "type": "uint64"
        }
      ],
      "name": "getTotalGeneratedEnergyByWatcher",
      "outputs": [
        {
          "internalType": "uint256",
          "name": "",
          "type": "uint256"
        }
      ],
      "stateMutability": "view",
      "type": "function"
    },
    {
      "inputs": [
        {
          "internalType": "uint64",
          "name": "watcherId",
          "type": "uint64"
        }
      ],
      "name": "getWatcher",
      "outputs": [
        {
          "components": [
            {
              "internalType": "address",
              "name": "owner",
              "type": "address"
            },
            {
              "internalType": "bool",
              "name": "registered",
              "type": "bool"
            },
            {
              "internalType": "string",
              "name": "name",
              "type": "string"
            }
          ],
          "internalType": "struct EnergyRegistry.Watcher",
          "name": "",
          "type": "tuple"
        }
      ],
      "stateMutability": "view",
      "type": "function"
    },
    {
      "inputs": [
        {
          "internalType": "uint64",
          "name": "watcherId",
          "type": "uint64"
        }
      ],
      "name": "getWatcherProjects",
      "outputs": [
        {
          "internalType": "uint64[]",
          "name": "",
          "type": "uint64[]"
        }
      ],
      "stateMutability": "view",
      "type": "function"
    },
    {
      "inputs": [
        {
          "internalType": "address",
          "name": "resolver",
          "type": "address"
        }
      ],
      "name": "isAuthorizedResolver",
      "outputs": [
        {
          "internalType": "bool",
          "name": "",
          "type": "bool"
        }
      ],
      "stateMutability": "view",
      "type": "function"
    },
    {
      "inputs": [
        {
          "internalType": "uint8",
          "name": "id",
          "type": "uint8"
        }
      ],
      "name": "isEnergyTypeRegistered",
      "outputs": [
        {
          "internalType": "bool",
          "name": "",
          "type": "bool"
        }
      ],
      "stateMutability": "view",
      "type": "function"
    },
    {
      "inputs": [
        {
          "internalType": "uint64",
          "name": "projectId",
          "type": "uint64"
        },
        {
          "internalType": "address",
          "name": "attester",
          "type": "address"
        }
      ],
      "name": "isProjectAttester",
      "outputs": [
        {
          "internalType": "bool",
          "name": "",
          "type": "bool"
        }
      ],
      "stateMutability": "view",
      "type": "function"
    },
    {
      "inputs": [
        {
          "internalType": "uint64",
          "name": "projectId",
          "type": "uint64"
        }
      ],
      "name": "isProjectRegistered",
      "outputs": [
        {
          "internalType": "bool",
          "name": "",
          "type": "bool"
        }
      ],
      "stateMutability": "view",
      "type": "function"
    },
    {
      "inputs": [
        {
          "internalType": "uint64",
          "name": "watcherId",
          "type": "uint64"
        },
        {
          "internalType": "address",
          "name": "attester",
          "type": "address"
        }
      ],
      "name": "isWatcherAttester",
      "outputs": [
        {
          "internalType": "bool",
          "name": "",
          "type": "bool"
        }
      ],
      "stateMutability": "view",
      "type": "function"
    },
    {
      "inputs": [
        {
          "internalType": "uint64",
          "name": "watcherId",
          "type": "uint64"
        }
      ],
      "name": "isWatcherRegistered",
      "outputs": [
        {
          "internalType": "bool",
          "name": "",
          "type": "bool"
        }
      ],
      "stateMutability": "view",
      "type": "function"
    },
    {
      "inputs": [],
      "name": "owner",
      "outputs": [
        {
          "internalType": "address",
          "name": "",
          "type": "address"
        }
      ],
      "stateMutability": "view",
      "type": "function"
    },
    {
      "inputs": [],
      "name": "pendingOwner",
      "outputs": [
        {
          "internalType": "address",
          "name": "",
          "type": "address"
        }
      ],
      "stateMutability": "view",
      "type": "function"
    },
    {
      "inputs": [
        {
          "internalType": "bytes32",
          "name": "uid",
          "type": "bytes32"
        },
        {
          "internalType": "uint64",
          "name": "projectId",
          "type": "uint64"
        },
        {
          "internalType": "uint64",
          "name": "fromTimestamp",
          "type": "uint64"
        },
        {
          "internalType": "uint64",
          "name": "toTimestamp",
          "type": "uint64"
        },
        {
          "internalType": "uint256",
          "name": "energyWh",
          "type": "uint256"
        },
        {
          "internalType": "address",
          "name": "attester",
          "type": "address"
        },
        {
          "internalType": "string",
          "name": "metadataURI",
          "type": "string"
        },
        {
          "internalType": "uint256[]",
          "name": "readings",
          "type": "uint256[]"
        }
      ],
      "name": "recordAttestation",
      "outputs": [],
      "stateMutability": "nonpayable",
      "type": "function"
    },
    {
      "inputs": [
        {
          "internalType": "bytes32",
          "name": "oldUid",
          "type": "bytes32"
        },
        {
          "internalType": "bytes32",
          "name": "newUid",
          "type": "bytes32"
        },
        {
          "internalType": "uint64",
          "name": "projectId",
          "type": "uint64"
        },
        {
          "internalType": "uint64",
          "name": "fromTimestamp",
          "type": "uint64"
        },
        {
          "internalType": "uint64",
          "name": "toTimestamp",
          "type": "uint64"
        },
        {
          "internalType": "uint256",
          "name": "oldEnergyWh",
          "type": "uint256"
        },
        {
          "internalType": "uint256",
          "name": "newEnergyWh",
          "type": "uint256"
        },
        {
          "internalType": "address",
          "name": "attester",
          "type": "address"
        },
        {
          "internalType": "string",
          "name": "metadataURI",
          "type": "string"
        }
      ],
      "name": "recordReplacement",
      "outputs": [],
      "stateMutability": "nonpayable",
      "type": "function"
    },
    {
      "inputs": [
        {
          "internalType": "bytes32",
          "name": "",
          "type": "bytes32"
        },
        {
          "internalType": "uint64",
          "name": "projectId",
          "type": "uint64"
        },
        {
          "internalType": "uint64",
          "name": "",
          "type": "uint64"
        },
        {
          "internalType": "uint64",
          "name": "",
          "type": "uint64"
        },
        {
          "internalType": "uint256",
          "name": "",
          "type": "uint256"
        },
        {
          "internalType": "address",
          "name": "",
          "type": "address"
        }
      ],
      "name": "recordRevocation",
      "outputs": [],
      "stateMutability": "view",
      "type": "function"
    },
    {
      "inputs": [
        {
          "internalType": "uint8",
          "name": "id",
          "type": "uint8"
        },
        {
          "internalType": "string",
          "name": "name",
          "type": "string"
        }
      ],
      "name": "registerEnergyType",
      "outputs": [],
      "stateMutability": "nonpayable",
      "type": "function"
    },
    {
      "inputs": [
        {
          "internalType": "uint64",
          "name": "watcherId",
          "type": "uint64"
        },
        {
          "internalType": "string",
          "name": "name",
          "type": "string"
        },
        {
          "internalType": "uint8",
          "name": "energyType",
          "type": "uint8"
        }
      ],
      "name": "registerProject",
      "outputs": [
        {
          "internalType": "uint64",
          "name": "projectId",
          "type": "uint64"
        }
      ],
      "stateMutability": "nonpayable",
      "type": "function"
    },
    {
      "inputs": [
        {
          "internalType": "string",
          "name": "name",
          "type": "string"
        }
      ],
      "name": "registerWatcher",
      "outputs": [
        {
          "internalType": "uint64",
          "name": "watcherId",
          "type": "uint64"
        }
      ],
      "stateMutability": "nonpayable",
      "type": "function"
    },
    {
      "inputs": [
        {
          "internalType": "uint64",
          "name": "projectId",
          "type": "uint64"
        },
        {
          "internalType": "address",
          "name": "attester",
          "type": "address"
        }
      ],
      "name": "removeAttester",
      "outputs": [],
      "stateMutability": "nonpayable",
      "type": "function"
    },
    {
      "inputs": [
        {
          "internalType": "uint64",
          "name": "projectId",
          "type": "uint64"
        },
        {
          "internalType": "address[]",
          "name": "attesters",
          "type": "address[]"
        }
      ],
      "name": "removeAttesters",
      "outputs": [],
      "stateMutability": "nonpayable",
      "type": "function"
    },
    {
      "inputs": [
        {
          "internalType": "uint8",
          "name": "id",
          "type": "uint8"
        }
      ],
      "name": "removeEnergyType",
      "outputs": [],
      "stateMutability": "nonpayable",
      "type": "function"
    },
    {
      "inputs": [
        {
          "internalType": "uint64",
          "name": "watcherId",
          "type": "uint64"
        },
        {
          "internalType": "address",
          "name": "attester",
          "type": "address"
        }
      ],
      "name": "removeWatcherAttester",
      "outputs": [],
      "stateMutability": "nonpayable",
      "type": "function"
    },
    {
      "inputs": [],
      "name": "renounceOwnership",
      "outputs": [],
      "stateMutability": "pure",
      "type": "function"
    },
    {
      "inputs": [
        {
          "internalType": "uint64",
          "name": "projectId",
          "type": "uint64"
        },
        {
          "internalType": "string",
          "name": "uri",
          "type": "string"
        }
      ],
      "name": "setProjectMetadataURI",
      "outputs": [],
      "stateMutability": "nonpayable",
      "type": "function"
    },
    {
      "inputs": [
        {
          "internalType": "address",
          "name": "newAdmin",
          "type": "address"
        }
      ],
      "name": "transferEnergyTypeAdmin",
      "outputs": [],
      "stateMutability": "nonpayable",
      "type": "function"
    },
    {
      "inputs": [
        {
          "internalType": "address",
          "name": "newOwner",
          "type": "address"
        }
      ],
      "name": "transferOwnership",
      "outputs": [],
      "stateMutability": "nonpayable",
      "type": "function"
    },
    {
      "inputs": [
        {
          "internalType": "uint64",
          "name": "projectId",
          "type": "uint64"
        },
        {
          "internalType": "uint64",
          "name": "toWatcherId",
          "type": "uint64"
        }
      ],
      "name": "transferProject",
      "outputs": [],
      "stateMutability": "nonpayable",
      "type": "function"
    },
    {
      "inputs": [
        {
          "internalType": "uint64",
          "name": "watcherId",
          "type": "uint64"
        },
        {
          "internalType": "address",
          "name": "newOwner",
          "type": "address"
        }
      ],
      "name": "transferWatcherOwnership",
      "outputs": [],
      "stateMutability": "nonpayable",
      "type": "function"
    }
  ],
  "bytecode": "0x6080604052346118df5733156118cc57600180546001600160a01b03199081169091555f805433928116831782556001600160a01b0316907f8be0079c531659141344cd1fd0a4f28419497f9722a3daafe3b4186f6b6457e09080a3600480546001600160401b03199081166001908117909255600680549091169091179055601580546001600160a01b03191633179055604080519081016001600160401b03811182821017610f1257604052600881526739b7b630b92fb83b60c11b602080830191825260015f52601390528151917f4155c2f711f2cdd34f8262ab8fb9b7020a700fe7b6948222152f7670d1fdf34d6001600160401b038411610f12578054600181811c911680156118c2575b6020821014610ef457601f811161187d575b50602093601f811160011461180a5791604091835f5160206144505f395f51905f5295946001975f916117ff575b505f19600383901b1c191690871b1790555b845f526014602052815f208560ff198254161790558151928391602083525180918160208501528484015e5f828201840152601f01601f19168101030190a2604080519081016001600160401b03811182821017610f1257604052600c81526b77696e645f6f6e73686f726560a01b602080830191825260025f52601390528151917f0b9d2c0c271bb30544eb78c59bdaebdae2728e5f65814c07768a0abe90ed19236001600160401b038411610f12578054600181811c911680156117f5575b6020821014610ef457601f81116117b0575b50602093601f811160011461173c5791604091835f5160206144505f395f51905f5295946002975f91611731575b508160011b915f199060031b1c19161790555b845f526014602052815f20600160ff198254161790558151928391602083525180918160208501528484015e5f828201840152601f01601f19168101030190a2604080519081016001600160401b03811182821017610f1257604052600d81526c77696e645f6f666673686f726560981b602080830191825260035f52601390528151917f0d2a6872ef858a7f8ead18dc4f3f2e8d35c853d47e2816cbb9cdd49202554e0c6001600160401b038411610f12578054600181811c91168015611727575b6020821014610ef457601f81116116e2575b50602093601f811160011461166f5791604091835f5160206144505f395f51905f5295946003975f91611664575b508160011b915f1990891b1c19161790555b845f526014602052815f20600160ff198254161790558151928391602083525180918160208501528484015e5f828201840152601f01601f19168101030190a2604080519081016001600160401b03811182821017610f12576040526005815264687964726f60d81b602080830191825260045f52601390528151917f01413ff7a3b1d5b6c016c061d48e2c7014700c777a29fcd068fff04265813d5d6001600160401b038411610f12578054600181811c9116801561165a575b6020821014610ef457601f8111611615575b50602093601f81116001146115a15791604091835f5160206144505f395f51905f5295946004975f91611596575b508160011b915f199060031b1c19161790555b845f526014602052815f20600160ff198254161790558151928391602083525180918160208501528484015e5f828201840152601f01601f19168101030190a26104e06118e3565b6662696f6d61737360c81b602082810191825260055f52601390528151917ff4b2859895858d6aa26d656e4999d552f6a869b74c43bba7d2a941c4d22c35596001600160401b038411610f12578054600181811c9116801561158c575b6020821014610ef457601f8111611547575b50602093601f81116001146114d35791604091835f5160206144505f395f51905f5295946005975f916114c8575b508160011b915f199060031b1c19161790555b845f526014602052815f20600160ff198254161790558151928391602083525180918160208501528484015e5f828201840152601f01601f19168101030190a2604080519081016001600160401b03811182821017610f1257604052600a81526919d95bdd1a195c9b585b60b21b602080830191825260065f52601390528151917f709d0e3cf89777a1e1f9c99632e4494f29b0327befd0df15e277a12d948257956001600160401b038411610f12578054600181811c911680156114be575b6020821014610ef457601f8111611479575b50602093601f81116001146114055791604091835f5160206144505f395f51905f5295946006975f916113fa575b508160011b915f199060031b1c19161790555b845f526014602052815f20600160ff198254161790558151928391602083525180918160208501528484015e5f828201840152601f01601f19168101030190a26106eb611906565b6a1bd8d9585b97dd1a59185b60aa1b602082810191825260075f52601390528151917f8ba6fb577925b0796671c737df59b8aaae861b630513fb12823699e3e0e3ee606001600160401b038411610f12578054600181811c911680156113f0575b6020821014610ef457601f81116113ab575b50602093601f81116001146113375791604091835f5160206144505f395f51905f5295946007975f9161132c575b508160011b915f199060031b1c19161790555b845f526014602052815f20600160ff198254161790558151928391602083525180918160208501528484015e5f828201840152601f01601f19168101030190a26107e76118e3565b66373ab1b632b0b960c91b602082810191825260085f52601390528151917f7b49122965436243734b7a552847e7503db682b4cbd4d2fd428feb216e8bcdf86001600160401b038411610f12578054600181811c91168015611322575b6020821014610ef457601f81116112dd575b50602093601f81116001146112695791604091835f5160206144505f395f51905f5295946008975f9161125e575b508160011b915f199060031b1c19161790555b845f526014602052815f20600160ff198254161790558151928391602083525180918160208501528484015e5f828201840152601f01601f19168101030190a26108df611906565b6a6e61747572616c5f67617360a81b602082810191825260095f52601390528151917f76aa7d3cd4f559a3c98822aa7e1c37143eb9f80ceff73a5023a8fc3d6d44af616001600160401b038411610f12578054600181811c91168015611254575b6020821014610ef457601f811161120f575b50602093601f811160011461119b5791604091835f5160206144505f395f51905f5295946009975f91611190575b508160011b915f199060031b1c19161790555b845f526014602052815f20600160ff198254161790558151928391602083525180918160208501528484015e5f828201840152601f01601f19168101030190a2604080519081016001600160401b03811182821017610f1257604052600481526318dbd85b60e21b6020808301918252600a5f52601390528151917f522e87d3d671f2915034f38e0229384befcd14fcb6842a4a7158cb5222bace8f6001600160401b038411610f12578054600181811c91168015611186575b6020821014610ef457601f8111611141575b50602093601f81116001146110cd5791604091835f5160206144505f395f51905f529594600a975f916110c2575b508160011b915f199060031b1c19161790555b845f526014602052815f20600160ff198254161790558151928391602083525180918160208501528484015e5f828201840152601f01601f19168101030190a2604080519081016001600160401b03811182821017610f125760405260038152621bda5b60ea1b6020808301918252600b5f52601390528151917f096c4a5a35712f3bccddea911ca4c882190a673235afa6b733222c1c4155d4d86001600160401b038411610f12578054600181811c911680156110b8575b6020821014610ef457601f8111611073575b50602093601f8111600114610fff5791604091835f5160206144505f395f51905f529594600b975f91610ff4575b508160011b915f199060031b1c19161790555b845f526014602052815f20600160ff198254161790558151928391602083525180918160208501528484015e5f828201840152601f01601f19168101030190a2604080519081016001600160401b03811182821017610f1257604052601181527073746f726167655f64697363686172676560781b6020808301918252600c5f52601390528151917fcfe7df53cb540a76cd59225a83802812c158f2244765c115f543988963e43a906001600160401b038411610f12578054600181811c91168015610fea575b6020821014610ef457601f8111610fa5575b50602093601f8111600114610f315791604091835f5160206144505f395f51905f529594600c975f91610f26575b508160011b915f199060031b1c19161790555b845f526014602052815f20600160ff198254161790558151928391602083525180918160208501528484015e5f828201840152601f01601f19168101030190a2604080519081016001600160401b03811182821017610f125760405260128152711a1e591c9bd9d95b97d99d595b17d8d95b1b60721b6020808301918252600d5f52601390528151917f36b2512b73409a9488d8a6ff5f55d24a81b2d0acc0dc87ddb304454989acb2d56001600160401b038411610f12578054600181811c91168015610f08575b6020821014610ef457601f8111610eaf575b50602093601f8111600114610e3b5791604091835f5160206144505f395f51905f529594600d975f91610e30575b508160011b915f199060031b1c19161790555b845f526014602052815f20600160ff198254161790558151928391602083525180918160208501528484015e5f828201840152601f01601f19168101030190a2604051612b26908161192a8239f35b90508301515f610dce565b601f198116825f52855f20905f5b818110610e9757508260409492600d985f5160206144505f395f51905f5298979560019410610e7f575b5050811b019055610de1565b8501515f1960f88460031b161c191690555f80610e73565b85880151835560209788019760019093019201610e49565b815f5260205f20601f860160051c81019160208710610eea575b601f0160051c01905b818110610edf5750610da0565b5f8155600101610ed2565b9091508190610ec9565b634e487b7160e01b5f52602260045260245ffd5b90607f1690610d8e565b634e487b7160e01b5f52604160045260245ffd5b90508301515f610cb3565b601f198116825f52855f20905f5b818110610f8d57508260409492600c985f5160206144505f395f51905f5298979560019410610f75575b5050811b019055610cc6565b8501515f1960f88460031b161c191690555f80610f69565b85880151835560209788019760019093019201610f3f565b815f5260205f20601f860160051c81019160208710610fe0575b601f0160051c01905b818110610fd55750610c85565b5f8155600101610fc8565b9091508190610fbf565b90607f1690610c73565b90508301515f610b99565b601f198116825f52855f20905f5b81811061105b57508260409492600b985f5160206144505f395f51905f5298979560019410611043575b5050811b019055610bac565b8501515f1960f88460031b161c191690555f80611037565b8588015183556020978801976001909301920161100d565b815f5260205f20601f860160051c810191602087106110ae575b601f0160051c01905b8181106110a35750610b6b565b5f8155600101611096565b909150819061108d565b90607f1690610b59565b90508301515f610a8d565b601f198116825f52855f20905f5b81811061112957508260409492600a985f5160206144505f395f51905f5298979560019410611111575b5050811b019055610aa0565b8501515f1960f88460031b161c191690555f80611105565b858801518355602097880197600190930192016110db565b815f5260205f20601f860160051c8101916020871061117c575b601f0160051c01905b8181106111715750610a5f565b5f8155600101611164565b909150819061115b565b90607f1690610a4d565b90508301515f610980565b601f198116825f52855f20905f5b8181106111f7575082604094926009985f5160206144505f395f51905f52989795600194106111df575b5050811b019055610993565b8501515f1960f88460031b161c191690555f806111d3565b858801518355602097880197600190930192016111a9565b815f5260205f20601f860160051c8101916020871061124a575b601f0160051c01905b81811061123f5750610952565b5f8155600101611232565b9091508190611229565b90607f1690610940565b90508301515f610884565b601f198116825f52855f20905f5b8181106112c5575082604094926008985f5160206144505f395f51905f52989795600194106112ad575b5050811b019055610897565b8501515f1960f88460031b161c191690555f806112a1565b85880151835560209788019760019093019201611277565b815f5260205f20601f860160051c81019160208710611318575b601f0160051c01905b81811061130d5750610856565b5f8155600101611300565b90915081906112f7565b90607f1690610844565b90508301515f61078c565b601f198116825f52855f20905f5b818110611393575082604094926007985f5160206144505f395f51905f529897956001941061137b575b5050811b01905561079f565b8501515f1960f88460031b161c191690555f8061136f565b85880151835560209788019760019093019201611345565b815f5260205f20601f860160051c810191602087106113e6575b601f0160051c01905b8181106113db575061075e565b5f81556001016113ce565b90915081906113c5565b90607f169061074c565b90508301515f610690565b601f198116825f52855f20905f5b818110611461575082604094926006985f5160206144505f395f51905f5298979560019410611449575b5050811b0190556106a3565b8501515f1960f88460031b161c191690555f8061143d565b85880151835560209788019760019093019201611413565b815f5260205f20601f860160051c810191602087106114b4575b601f0160051c01905b8181106114a95750610662565b5f815560010161149c565b9091508190611493565b90607f1690610650565b90508301515f61057d565b601f198116825f52855f20905f5b81811061152f575082604094926005985f5160206144505f395f51905f5298979560019410611517575b5050811b019055610590565b8501515f1960f88460031b161c191690555f8061150b565b858801518355602097880197600190930192016114e1565b815f5260205f20601f860160051c81019160208710611582575b601f0160051c01905b818110611577575061054f565b5f815560010161156a565b9091508190611561565b90607f169061053d565b90508301515f610485565b601f198116825f52855f20905f5b8181106115fd575082604094926004985f5160206144505f395f51905f52989795600194106115e5575b5050811b019055610498565b8501515f1960f88460031b161c191690555f806115d9565b858801518355602097880197600190930192016115af565b815f5260205f20601f860160051c81019160208710611650575b601f0160051c01905b8181106116455750610457565b5f8155600101611638565b909150819061162f565b90607f1690610445565b90508301515f610378565b601f198116825f52855f20905f5b8181106116ca575082604094926003985f5160206144505f395f51905f52989795600194106116b3575b5050811b01905561038a565b8501515f19838b1b60f8161c191690555f806116a7565b8588015183556020978801976001909301920161167d565b815f5260205f20601f860160051c8101916020871061171d575b601f0160051c01905b818110611712575061034a565b5f8155600101611705565b90915081906116fc565b90607f1690610338565b90508301515f610262565b601f198116825f52855f20905f5b818110611798575082604094926002985f5160206144505f395f51905f5298979560019410611780575b5050811b019055610275565b8501515f1960f88460031b161c191690555f80611774565b8588015183556020978801976001909301920161174a565b815f5260205f20601f860160051c810191602087106117eb575b601f0160051c01905b8181106117e05750610234565b5f81556001016117d3565b90915081906117ca565b90607f1690610222565b90508301515f61014f565b601f198116825f52855f20905f5b818110611865575082604094926001985f5160206144505f395f51905f529897958a941061184d575b5050811b019055610161565b8501515f1960f88460031b161c191690555f80611841565b85880151835560209788019760019093019201611818565b815f5260205f20601f860160051c810191602087106118b8575b601f0160051c01905b8181106118ad5750610121565b5f81556001016118a0565b9091508190611897565b90607f169061010f565b631e4fbdf760e01b5f525f60045260245ffd5b5f80fd5b60408051919082016001600160401b03811183821017610f125760405260078252565b60408051919082016001600160401b03811183821017610f1257604052600b825256fe6080806040526004361015610012575f80fd5b5f3560e01c908163058d66701461265b5750806306c88c2b146126355780630707fefc146125f45780630795549a146125b457806317835e481461257457806318606145146124955780631d502fbf146123db57806327d605d3146123a357806329ba12581461236b578063318c9b6e1461233457806335c8a4d9146121b457806338bd79bc1461217657806339332138146120e157806347878438146120115780634bd8ff0714611fd9578063528a66dc14611f685780635fbdf1b314611edf578063691a7a8014611eb55780636d871a4514611e50578063715018a614611e07578063744c210f14611db357806377a25eb914611bab57806379ba509714611b2b5780637fb2a4bf14611af3578063808ed7c51461185657806386c28d18146117fe57806388a278031461178f5780638da5cb5b1461176857806393de4bab1461169657806399fba1251461165e5780639bb6d8ab146115475780639d699a451461147a5780639fb522c814611363578063a74391e3146110d2578063ab223af514611088578063af38188e14610d6b578063af7b718a14610d03578063b06a2ca914610c9e578063b6903f5114610c61578063c65a870914610c09578063cfb8521414610ab0578063d17f8f69146109b2578063d419e6c8146107ff578063d4f8f568146107ac578063dc1cd929146105f4578063e30c3978146105cc578063ebb0001c1461058b578063f2fde38b14610519578063f9d9eaee1461026c5763fc62137914610242575f80fd5b34610268575f3660031901126102685760206001600160401b0360045416604051908152f35b5f80fd5b346102685760603660031901126102685761028561267e565b6024356001600160401b038111610268576102a490369060040161274c565b906044359160ff8316809303610268576102bd84612a74565b82151580610502575b6104ef57600654926001600160401b038416936001600160401b036001860116906001600160401b031916176006556001600160401b036040519561030a87612807565b1692838652600160208701968188526040810184815261032b36878661291b565b9860608301998a52885f5260056020526001600160401b038060405f20945116166001600160401b031984541617835551151560ff60401b83549160401b169060ff60401b19161782555160ff60481b82549160481b169060ff60481b1916178155019551928351926001600160401b0384116104db5787846103bb89966103b560209c54612843565b84612976565b8996601f82116001146104555790807f26067c060a09434ccfebe6434048637b08a4bc8c48eab0587c0c090116e36cdc979861040c935f9261044a575b50508160011b915f199060031b1c19161790565b90555b855f52600788526104238560405f20612a4c565b61043a6040519384936040855260408501916129b9565b90888301520390a3604051908152f35b015190508c806103f8565b601f19821690835f52885f20915f5b8181106104c15750988392916001947f26067c060a09434ccfebe6434048637b08a4bc8c48eab0587c0c090116e36cdc9a9b106104a9575b505050811b01905561040f565b01515f1960f88460031b161c191690558b808061049c565b828b01518455998d01998c99506001909301928d01610464565b634e487b7160e01b5f52604160045260245ffd5b8263a01d4a4360e01b5f5260045260245ffd5b50825f52601460205260ff60405f205416156102c6565b34610268576020366003190112610268576105326126ec565b61053a612add565b60018060a01b0316806bffffffffffffffffffffffff60a01b600154161760015560018060a01b035f54167f38d16b8cac22d99fc7c124b9cd0de2d3fa1faef420bfe791d8c362d765e227005f80a3005b34610268576020366003190112610268576001600160401b036105ac61267e565b165f52601060205260206001600160401b0360405f205416604051908152f35b34610268575f366003190112610268576001546040516001600160a01b039091168152602090f35b346102685760403660031901126102685761060d61273c565b6024356001600160401b0381116102685761062c90369060040161274c565b6015546001600160a01b031633036107995760ff9161064c91369161291b565b9116805f52601360205260405f20918051926001600160401b0384116104db576106808461067a8354612843565b83612976565b602093601f811160011461071357906106d58261070394937f972caa39e72480d61337cd25d7b5b5514458f8818decab9c58788717f7905e2796975f91610708575b508160011b915f199060031b1c19161790565b90555b835f52601460205260405f20600160ff19825416179055604051918291602083526020830190612718565b0390a2005b9050840151886106c2565b601f198116825f52855f20905f5b8181106107815750916001917f972caa39e72480d61337cd25d7b5b5514458f8818decab9c58788717f7905e2796978261070397969510610769575b5050811b0190556106d8565b8501515f1960f88460031b161c19169055878061075d565b85880151835560209788019760019093019201610721565b6324a3ab2960e21b5f523360045260245ffd5b34610268576020366003190112610268576001600160401b036107cd61267e565b165f52600560205260ff60405f205460481c16155f146107f757602060015b60ff60405191168152f35b60205f6107ec565b346102685760403660031901126102685761081861267e565b602435906001600160401b038211610268576108406001600160401b0392369060040161274c565b9290911690815f52600560205260ff60405f205460401c161561099f57815f52600560205261087b6001600160401b0360405f205416612a74565b815f52601260205260405f20926001600160401b0381116104db576108aa816108a48654612843565b86612976565b5f93601f821160011461091d576108f882807f84d6a78d09089a41ce72e8c8659620805699506f94df89e328a546a09b75cf0996975f9161091257508160011b915f199060031b1c19161790565b90555b6107036040519283926020845260208401916129b9565b9050850135886106c2565b601f19821694815f5260205f20905f5b8781106109875750837f84d6a78d09089a41ce72e8c8659620805699506f94df89e328a546a09b75cf0996971061096e575b5050600182811b0190556108fb565b8401355f19600385901b60f8161c19169055858061095f565b9091602060018192858901358155019301910161092d565b50630e32d1c960e11b5f5260045260245ffd5b34610268576040366003190112610268576109cb61267e565b6001600160401b036109db6126d6565b911690815f52600560205260ff60405f205460401c161561099f57815f526005602052610a146001600160401b0360405f205416612a74565b815f52600860205260405f2060018060a01b0382165f5260205260ff60405f205416610a93575f8281526008602090815260408083206001600160a01b0394909416808452939091528120805460ff191660011790559091907f4e58dd0c2b41fcffc97dfc67039bd0284456c764b7697bad230deff4354b6bd09080a3005b63f9b7afc560e01b5f5260018060a01b031660045260245260445ffd5b3461026857610abe366127a9565b918215610bfa576001600160401b0316805f52600560205260ff60405f205460401c1615610be857805f526005602052610b046001600160401b0360405f205416612a74565b5f5b838110610b0f57005b815f52600860205260405f20610b2e610b298387876129f3565b612a17565b60018060a01b03165f5260205260ff60405f20541615610bbd57600190825f52600860205260405f20610b65610b298388886129f3565b838060a01b03165f5260205260405f2060ff198154169055818060a01b03610b91610b298388886129f3565b16837f4ac18daf67a0b52ad2f8f428c174339e0812f25a43cb0cc96a0b22605c48bb6c5f80a301610b06565b610b299193610bcb936129f3565b63b9812f2560e01b5f5260018060a01b031660045260245260445ffd5b630e32d1c960e11b5f5260045260245ffd5b637faabf5f60e01b5f5260045ffd5b3461026857604036600319011261026857610c2261267e565b6001600160401b03610c326126d6565b91165f52600960205260405f209060018060a01b03165f52602052602060ff60405f2054166040519015158152f35b34610268576020366003190112610268576001600160a01b03610c826126ec565b165f526002602052602060ff60405f2054166040519015158152f35b3461026857602036600319011261026857610cb76126ec565b610cbf612add565b6001600160a01b03165f818152600260205260408120805460ff191690557f62de76ce57d7f1bdcf921ae27bb8abeefa20ed655389dabc18c9e7eec03080489080a2005b3461026857602036600319011261026857610d1c6126ec565b610d24612add565b6001600160a01b03165f818152600260205260408120805460ff191660011790557f2c3901e3fb770eb03de86a9d260bd78efb1582f427318c892172df56e31981199080a2005b346102685761010036600319011261026857600435610d88612694565b90610d916126aa565b610d996126c0565b9260843591610da6612702565b60c4356001600160401b03811161026857610dc590369060040161274c565b60e4356001600160401b03811161026857610de4903690600401612779565b989095335f52600260205260ff60405f20541615611075576001600160401b031696875f52600e60205260405f206001600160401b0387165f5260205260405f206001600160401b0383165f5260205260405f205461104f57875f52600f60205260405f206001600160401b0387165f5260205260405f205461102f57875f5260106020526001600160401b0360405f2054168015158061101c575b610ff857505f888152600f602090815260408083206001600160401b038a81168086529184528285208e90558c8552600e84528285209185529083528184208187168086529084528285208e90558c855260108452828520805467ffffffffffffffff19169091179055600590925290912054610f67959493604882901c60ff1693929182168415610fc2578b5f52600a60205260405f20610f238582546129e6565b90555f52600c60205260405f20610f3b8482546129e6565b90555b81604051991689521660208801526040870152606086015260c0608086015260c08501916129b9565b82810360a0840152868152956001600160fb1b038111610268577f98e9ca761ae8324119d4f14a59e2735720bd29c8b9419824f5272d2f61f95ab993602092849260051b8092858b01376001600160a01b03169701030190a4005b8b5f52600b60205260405f20610fd98582546129e6565b90555f52600d60205260405f20610ff18482546129e6565b9055610f3e565b866001600160401b03918a631be91f1160e11b5f526004526024521660445260645ffd5b50806001600160401b0388161415610e80565b6001600160401b038689632569263b60e21b5f526004521660245260445ffd5b6001600160401b038281888b6329deb04b60e11b5f52600452166024521660445260645ffd5b636c3dba3b60e01b5f523360045260245ffd5b346102685760203660031901126102685760ff6110a361273c565b165f5260136020526110ce6110ba60405f2061287b565b604051918291602083526020830190612718565b0390f35b34610268576040366003190112610268576110eb61267e565b6110f3612694565b906001600160401b03811691825f52600560205260ff60405f205460401c161561135057825f5260056020526001600160401b038060405f2054169161113883612a74565b1692835f52600360205260ff60405f205460a01c161561133d57805f52600a60205260405f2054815f52600b60205260405f20549080611305575b50806112cd575b50815f52600760205260405f20928354935f5b8581106111ef575b8685856111c986825f52600560205260405f20856001600160401b0319825416179055845f52600760205260405f20612a4c565b7f6ecf7bcf6f3febd589d55f29eb18f67b74d65bbcf542dc5765fc8630d0f66a3c5f80a4005b836001600160401b036112028385612a2b565b90549060031b1c16146112175760010161118d565b5f95919394951982019182116112b95761124e6001600160401b0361123f61126d9487612a2b565b90549060031b1c169185612a2b565b9091906001600160401b038084549260031b9316831b921b1916179055565b81549182156112a5576111c9925f1901906112888282612a2b565b6001600160401b0382549160031b1b191690555583929186611195565b634e487b7160e01b5f52603160045260245ffd5b634e487b7160e01b5f52601160045260245ffd5b825f52600d60205260405f206112e48282546129d9565b9055845f52600d6020526112fd60405f209182546129e6565b90558461117a565b835f52600c60205260405f2061131c8282546129d9565b9055855f52600c60205261133560405f209182546129e6565b905585611173565b83634caa74a960e01b5f5260045260245ffd5b82630e32d1c960e11b5f5260045260245ffd5b346102685760203660031901126102685761137c61273c565b6015546001600160a01b031633036107995760ff16805f52601460205260ff60405f2054161561146857805f5260136020527f1909a652351337b0592c4b6e05975b25883f8595ddb55b690b45fc2b27bdd6b06107036113de60405f2061287b565b835f52601460205260405f2060ff198154169055835f52601360205260405f206114088154612843565b9081611425575b5050604051918291602083526020830190612718565b81601f5f931160011461143c5750555b848061140f565b8183526020832061145891601f0160051c810190600101612960565b8082528160208120915555611435565b6387d5b87b60e01b5f5260045260245ffd5b34610268576020366003190112610268576001600160401b0361149b61267e565b6060806040516114aa81612807565b5f81525f60208201525f60408201520152165f5260056020526001600160401b0360405f206110ce604051916114df83612807565b60ff8154858116855261150e60016020870194848460401c161515865284604089019460481c1684520161287b565b926060860193845260405196879660208852511660208701525115156040860152511660608401525160808084015260a0830190612718565b3461026857611555366127a9565b918215610bfa576001600160401b0316805f52600560205260ff60405f205460401c1615610be857805f52600560205261159b6001600160401b0360405f205416612a74565b5f5b8381106115a657005b815f52600860205260405f206115c0610b298387876129f3565b60018060a01b03165f5260205260ff60405f20541661165057600190825f52600860205260405f206115f6610b298388886129f3565b838060a01b03165f5260205260405f208260ff19825416179055818060a01b03611624610b298388886129f3565b16837f4e58dd0c2b41fcffc97dfc67039bd0284456c764b7697bad230deff4354b6bd05f80a30161159d565b610b299193610a93936129f3565b34610268576020366003190112610268576001600160401b0361167f61267e565b165f52600b602052602060405f2054604051908152f35b34610268576040366003190112610268576116af61267e565b6001600160401b036116bf6126d6565b916116c981612a74565b1690815f52600960205260405f2060018060a01b0382165f5260205260ff60405f20541661174a575f8281526009602090815260408083206001600160a01b0394909416808452939091528120805460ff191660011790559091907f5305cd634ab7e87b6a944731a9389624aa32e480df922a6a3f05a7b74cb26e5f9080a3005b63f9b7afc560e01b5f5260018060a01b03166004525f60245260445ffd5b34610268575f366003190112610268575f546040516001600160a01b039091168152602090f35b34610268576060366003190112610268576117a861267e565b6117b0612694565b6001600160401b036117c06126aa565b92165f52600e6020526001600160401b0360405f2091165f526020526001600160401b0360405f2091165f52602052602060405f2054604051908152f35b346102685760403660031901126102685761181761267e565b6001600160401b036118276126d6565b91165f52600860205260405f209060018060a01b03165f52602052602060ff60405f2054166040519015158152f35b3461026857610120366003190112610268576024356004356118766126aa565b9161187f6126c0565b608435916001600160401b0383168093036102685760e4356001600160a01b038116959060a4359060c4359088900361026857610104356001600160401b038111610268576118d290369060040161274c565b929093335f52600260205260ff60405f2054161561107557885f52601160205260405f2054611ae0576001600160401b031696875f52600e60205260405f206001600160401b0388165f5260205260405f20815f526020528860405f205403611acd5791611a7593917fdb650ccc4706b3b13556b6b88846433faecde37b0ca739542b0e5973600c908297969593895f52600e60205260405f206001600160401b0389165f5260205260405f20815f526020528660405f2055895f52600f60205260405f206001600160401b0389165f526020528660405f20558a5f5260116020528660405f2055895f5260056020526001600160401b0360405f2054168a5f52600560205260ff60405f205460481c1615155f14611a7a578a5f52600a602052611a0a84611a058560405f20546129d9565b6129e6565b8b5f52600a60205260405f2055805f52600c602052611a3184611a058560405f20546129d9565b905f52600c60205260405f20555b6001600160401b03604051988998895216602088015260408701526060860152608085015260c060a085015260c08401916129b9565b0390a4005b8a5f52600b602052611a9484611a058560405f20546129d9565b8b5f52600b60205260405f2055805f52600d602052611abb84611a058560405f20546129d9565b905f52600d60205260405f2055611a3f565b886301fb6dd160e01b5f5260045260245ffd5b8863b9e0b98760e01b5f5260045260245ffd5b34610268576020366003190112610268576001600160401b03611b1461267e565b165f52600c602052602060405f2054604051908152f35b34610268575f36600319011261026857600154336001600160a01b03821603611b98576001600160a01b03199081166001555f805433928116831782556001600160a01b0316907f8be0079c531659141344cd1fd0a4f28419497f9722a3daafe3b4186f6b6457e09080a3005b63118cdaa760e01b5f523360045260245ffd5b34610268576020366003190112610268576004356001600160401b03811161026857611bdb90369060040161274c565b600454906001600160401b038216916001600160401b036001840116906001600160401b0319161760045560405192611c13846127ec565b33845260016020850194818652611c2b36858561291b565b60408281019182525f87815260036020522091518254975160ff60a01b1960a086811b87900393909316166001600160a81b031990991698909817971515901b60ff60a01b169690961781559451805195909291016001600160401b0386116104db57858593611ca7602098611ca18554612843565b85612976565b8790601f8311600114611d2857827f5a1597dfa7b145f29449939dab0f98ca4b4562846b9f80fccafb144e1af9e0569593611d129593611cfb935f92611d1d5750508160011b915f199060031b1c19161790565b90555b6040519182918883523396898401916129b9565b0390a3604051908152f35b015190508b806103f8565b90601f19831691845f52815f20925f5b818110611d9957509260019285927f5a1597dfa7b145f29449939dab0f98ca4b4562846b9f80fccafb144e1af9e0569896611d12989610611d81575b505050811b019055611cfe565b01515f1960f88460031b161c191690558a8080611d74565b8284015185558a9850600190940193928b01928b01611d38565b3461026857604036600319011261026857611dcc61267e565b6001600160401b03611ddc612694565b91165f52600f6020526001600160401b0360405f2091165f52602052602060405f2054604051908152f35b34610268575f3660031901126102685760405162461bcd60e51b815260206004820152601160248201527014995b9bdd5b98d948191a5cd8589b1959607a1b6044820152606490fd5b346102685760c036600319011261026857611e69612694565b611e716126aa565b50611e7a6126c0565b50611e83612702565b50335f52600260205260ff60405f20541615611075576001600160401b0390631f698ec960e11b5f521660045260245ffd5b34610268576020366003190112610268576004355f526011602052602060405f2054604051908152f35b3461026857604036600319011261026857611ef861267e565b6001600160401b03611f086126d6565b91611f1281612a74565b165f81815260036020526040812080546001600160a01b039485166001600160a01b03198216811790925590931691907f13365eb639966596cc8d105f9cd9ddc33e5edd691d0c57ef468ee2fe08247a0b9080a4005b3461026857602036600319011261026857611f816126ec565b601554906001600160a01b0382169033829003610799576001600160a01b03166001600160a01b03199290921682176015557f1a5adf9136db9fa42a2003f5f98924312c2cf96afb14141986d987e7588b5c815f80a3005b34610268576020366003190112610268576001600160401b03611ffa61267e565b165f5260126020526110ce6110ba60405f2061287b565b346102685760403660031901126102685761202a61267e565b6001600160401b0361203a6126d6565b9161204481612a74565b1690815f52600960205260405f2060018060a01b0382165f5260205260ff60405f205416156120c3575f8281526009602090815260408083206001600160a01b0394909416808452939091528120805460ff191690559091907f8471f6c4ec766e3c7c08849aae3786382bd72569768238919cfc735e184eacd09080a3005b63b9812f2560e01b5f5260018060a01b03166004525f60245260445ffd5b34610268576020366003190112610268576001600160401b0361210261267e565b16805f52600560205260ff60405f205460401c1615610be857805f5260056020526121396001600160401b0360405f205416612a74565b805f52600560205260405f2060ff60401b1981541690557f6db5ae2a4467f2b4f78761dc867939c9e9ca2a546324835f6ee295700c8762735f80a2005b34610268576020366003190112610268576001600160401b0361219761267e565b165f526005602052602060ff60405f205460481c16604051908152f35b34610268576020366003190112610268576001600160401b036121d561267e565b165f52600760205260405f2060405190818260208354928381520180935f5260205f20925f905b8060038301106122e2576122359454918181106122c8575b8181106122ab575b81811061228e575b10612280575b509392930382612822565b604051918291602083019060208452518091526040830191905f5b81811061225e575050500390f35b82516001600160401b0316845285945060209384019390920191600101612250565b60c01c81526020018561222a565b9260206001916001600160401b038560801c168152019301612224565b9260206001916001600160401b038560401c16815201930161221c565b9260206001916001600160401b0385168152019301612214565b916004919350608060019186546001600160401b03811682526001600160401b038160401c1660208301526001600160401b0381841c16604083015260c01c60608201520194019201859293916121fc565b346102685760203660031901126102685760ff61234f61273c565b165f526014602052602060ff60405f2054166040519015158152f35b34610268576020366003190112610268576001600160401b0361238c61267e565b165f52600a602052602060405f2054604051908152f35b34610268576020366003190112610268576001600160401b036123c461267e565b165f52600d602052602060405f2054604051908152f35b34610268576020366003190112610268576001600160401b036123fc61267e565b60606040805161240b816127ec565b5f81525f60208201520152165f52600360205260405f2060405161242e816127ec565b81546001600160a01b038116825260a01c60ff16151560208201908152916110ce9061245c9060010161287b565b604083019081526040519384936020855260018060a01b0390511660208501525115156040840152516060808401526080830190612718565b34610268576040366003190112610268576124ae61267e565b6001600160401b036124be6126d6565b911690815f52600560205260ff60405f205460401c161561099f57815f5260056020526124f76001600160401b0360405f205416612a74565b815f52600860205260405f2060018060a01b0382165f5260205260ff60405f20541615610bcb575f8281526008602090815260408083206001600160a01b0394909416808452939091528120805460ff191690559091907f4ac18daf67a0b52ad2f8f428c174339e0812f25a43cb0cc96a0b22605c48bb6c9080a3005b34610268576020366003190112610268576001600160401b0361259561267e565b165f526005602052602060ff60405f205460401c166040519015158152f35b34610268576020366003190112610268576001600160401b036125d561267e565b165f526003602052602060ff60405f205460a01c166040519015158152f35b34610268576020366003190112610268576001600160401b0361261561267e565b165f52600560205260206001600160401b0360405f205416604051908152f35b34610268575f3660031901126102685760206001600160401b0360065416604051908152f35b34610268575f366003190112610268576015546001600160a01b03168152602090f35b600435906001600160401b038216820361026857565b602435906001600160401b038216820361026857565b604435906001600160401b038216820361026857565b606435906001600160401b038216820361026857565b602435906001600160a01b038216820361026857565b600435906001600160a01b038216820361026857565b60a435906001600160a01b038216820361026857565b805180835260209291819084018484015e5f828201840152601f01601f1916010190565b6004359060ff8216820361026857565b9181601f84011215610268578235916001600160401b038311610268576020838186019501011161026857565b9181601f84011215610268578235916001600160401b038311610268576020808501948460051b01011161026857565b906040600319830112610268576004356001600160401b03811681036102685791602435906001600160401b038211610268576127e891600401612779565b9091565b606081019081106001600160401b038211176104db57604052565b608081019081106001600160401b038211176104db57604052565b90601f801991011681019081106001600160401b038211176104db57604052565b90600182811c92168015612871575b602083101461285d57565b634e487b7160e01b5f52602260045260245ffd5b91607f1691612852565b9060405191825f82549261288e84612843565b80845293600181169081156128f957506001146128b5575b506128b392500383612822565b565b90505f9291925260205f20905f915b8183106128dd5750509060206128b3928201015f6128a6565b60209193508060019154838589010152019101909184926128c4565b9050602092506128b394915060ff191682840152151560051b8201015f6128a6565b9291926001600160401b0382116104db5760405191612944601f8201601f191660200184612822565b829481845281830111610268578281602093845f960137010152565b81811061296b575050565b5f8155600101612960565b9190601f811161298557505050565b6128b3925f5260205f20906020601f840160051c830193106129af575b601f0160051c0190612960565b90915081906129a2565b908060209392818452848401375f828201840152601f01601f1916010190565b919082039182116112b957565b919082018092116112b957565b9190811015612a035760051b0190565b634e487b7160e01b5f52603260045260245ffd5b356001600160a01b03811681036102685790565b9190918054831015612a03575f52601860205f208360021c019260031b1690565b90815491680100000000000000008310156104db578261124e9160016128b395018155612a2b565b6001600160401b0316805f52600360205260ff60405f205460a01c1615612acb575f818152600360205260409020546001600160a01b03163303612ab55750565b631dd9a8d760e21b5f523360045260245260445ffd5b634caa74a960e01b5f5260045260245ffd5b5f546001600160a01b03163303611b985756fea26469706673582212209553095b4506831277906340efa2237f04e8435b185518c8cdb62dd5e445408164736f6c634300081c0033972caa39e72480d61337cd25d7b5b5514458f8818decab9c58788717f7905e27",
  "linkReferences": {},
  "deployedLinkReferences": {},
  "immutableReferences": {},
  "inputSourceName": "project/contracts/EnergyRegistry.sol",
  "buildInfoId": "solc-0_8_28-83d1dff6694f6a221ac87a876bb9e1c76ea4fb6c"
}